:020000040800F2
:1000000000000320210600080D1800080F18000842
:100010001118000813180008151800080000000047
:100020000000000000000000000000002193000814
:100030001718000800000000B1930008178C000892
:1000400071060008710600087106000871060008B4
:1000500071060008710600087106000871060008A4
:100060007106000871060008710600087106000894
:100070007106000871060008710600087106000884
:100080007106000871060008710600087106000874
:100090007106000871060008710600087106000864
:1000A0007106000871060008710600087106000854
:1000B0007106000871060008710600087106000844
:1000C0007106000871060008710600087106000834
:1000D0007106000871060008710600087106000824
:1000E0007106000871060008710600087106000814
:1000F0007106000871060008710600087106000804
:1001000071060008710600087106000871060008F3
:100110007106000871060008191800087106000829
:1001200071060008710600087106000871060008D3
:1001300071060008710600087106000871060008C3
:1001400071060008710600087106000871060008B3
:1001500071060008710600087106000871060008A3
:100160007106000871060008710600087106000893
:100170007106000871060008710600080000000002
:100180007106000871060008710600087106000873
:100190007106000871060008710600087106000863
:0C01A0002518000871060008311800083E
:1001B00010B5054C237833B9044B13B10448AFF3A1
:1001C00000800123237010BD800300200000000088
:1001D000D054020808B5034B1BB103490348AFF3E1
:1001E000008008BD0000000084030020D0540208F5
:1001F00001F0FF01102A2BDB10F0070F08D010F8D8
:10020000013B013A8B422DD010F0070F42B3F6D1DB
:10021000F0B441EA012141EA014122F007047FF0F4
:1002200000070023F0E80256083C85EA010586EA4B
:10023000010685FA47F5A3FA87F586FA47F6A5FA87
:1002400087F68EB9EED1F0BC01F0FF0102F0070293
:1002500032B110F8013B013A83EA010313B1F8D13E
:100260000020704701387047002D06BF354603381F
:10027000073815F0010F07D1013015F4807F02BF58
:10028000013015F4C03F0130F0BC0138704700BFA9
:100290007BB972B90029BEBF00204FF0004106E0D3
:1002A00008BF00281CBF6FF000414FF0FF3000F086
:1002B000B5B9ADF1080C6DE904CE002909DB002BBE
:1002C0001ADB00F04DF8DDF804E0DDE9022304B0AC
:1002D0007047404261EB4101002B1BDB00F040F80E
:1002E000DDF804E0DDE9022304B0404261EB4101A6
:1002F000524263EB43037047524263EB430300F007
:100300002FF8DDF804E0DDE9022304B0404261EBA0
:1003100041017047524263EB430300F021F8DDF8DE
:1003200004E0DDE9022304B0524263EB430370476B
:1003300053B94AB9002908BF00281CBF4FF0FF314C
:100340004FF0FF3000F06AB9ADF1080C6DE904CE52
:1003500000F006F8DDF804E0DDE9022304B07047A0
:100360002DE9F047089D0C46002B4ED194468C4554
:100370008646B2FA82F262D94AB1C2F120039140B4
:1003800020FA03F30CFA02FC194300FA02FE4FEACA
:100390001C471FFA8CF6B1FBF7F44FEA1E4307FB2C
:1003A000141143EA014304FB06F199420AD91CEBFC
:1003B000030304F1FF3080F01281994240F20F8173
:1003C000023C6344591A1FFA8EF3B1FBF7F007FBA6
:1003D000101143EA014300FB06F69E420AD91CEBCA
:1003E000030300F1FF3180F0FC809E4240F2F9806F
:1003F000634402389B1B40EA044000211DB1D340F6
:100400000022C5E90032BDE8F0878B4205D90DB165
:10041000C5E9000100210846F5E7B3FA83F1002998
:1004200046D1A34202D39042C0F0F080861A64EB1A
:1004300003030120002DE6D0C5E90063E3E7002AAD
:1004400040F09080A1EB0C044FEA1C481FFA8CF797
:100450000121B4FBF8F64FEA1E4308FB164443EAB9
:10046000044307FB06F0984208D91CEB030306F18E
:10047000FF3402D2984200F2CD8026461C1A1FFAA1
:100480008EF3B4FBF8F008FB104443EA044300FB8E
:1004900007F79F4208D91CEB030300F1FF3402D297
:1004A0009F4200F2B0802046DB1B40EA0640A5E7F1
:1004B000C1F120068B4022FA06F71F4320FA06FC02
:1004C00004FA01F343EA0C03F44000FA01F8380C93
:1004D0004FEA1349B4FBF0FE1FFA87FC00FB1E44F1
:1004E00049EA04440EFB0CF9A14502FA01F20AD9CB
:1004F0003C190EF1FF3A80F08480A14540F28180E2
:10050000AEF1020E3C44A4EB09041FFA83F9B4FBDC
:10051000F0F300FB134449EA044403FB0CFCA4453C
:1005200007D93C1903F1FF3067D2A44565D9023BD6
:100530003C4443EA0E40A0FB0293A4EB0C049C4213
:10054000CE469C4651D34ED055B1B8EB0E0364EB6A
:100550000C0404FA06F6CB401E43CC40C5E9006407
:10056000002150E7C2F1200320FA03F10CFA02FC4B
:1005700024FA03F394400C434FEA1C4800FA02FEAD
:100580001FFA8CF7B3FBF8F008FB1031230C43EA99
:10059000014300FB07F1994208D91CEB030300F16A
:1005A000FF362CD299422AD9023863445B1AA4B28E
:1005B000B3FBF8F108FB113344EA034401FB07F3F2
:1005C000A34208D91CEB040401F1FF3613D2A34265
:1005D00011D902396444E41A41EA004139E704467A
:1005E000F0E6084606E7C845AED2B9EB020E63EB6B
:1005F000070C0138A8E73146EDE7034699E7304696
:10060000D4E7D6467FE7634402384DE706462346E3
:1006100008460FE7023E634430E700BF704700BF63
:10062000DFF834D0002103E00C4B5B584350043119
:100630000B480C4B42189A42F6D30B4A02E00023B7
:1006400042F8043B094B9A42F9D305F091FA24F0A1
:10065000CFF900F0FFF8704700000320DC8B03089F
:10066000000000206C01002080030020403A01209F
:10067000FEE7000007B5064BADF806001B6805480D
:1006800001220DF1060107F0A1FD03B05DF804FBA6
:1006900004000020B404002010B5074C01222046BD
:1006A000082105F027FE20460122BDE810404FF446
:1006B000005105F01FBE00BF0018024008B50648F3
:1006C0000122042105F016FEBDE80840034801227E
:1006D0004FF4804105F00EBE0004024000180240B5
:1006E000054A064B12681A60054A12685A60054AA4
:1006F00012689A60704700BFB8030020A40300206E
:10070000B4030020B0030020054B064A19681160AD
:10071000054A596811609A68044B1A60704700BF17
:10072000A4030020B8030020B4030020B00300207D
:1007300038B5104DFFF7D4FF002405F045FC022129
:100740000B2005F0CBFC2A680B492346022005F05C
:100750007FFC6A6809492346022005F079FCAA68F3
:1007600007492346022005F073FCBDE8384005F038
:100770003DBC00BFA403002000000E0804000E08CA
:1007800008000E080C4A1368013B312B0B4B0CD8A8
:1007900051680139B1F57A7F07D29168012904D8EF
:1007A00007CA83E80700FFF7AFBF32221921C3E968
:1007B000001201229A60F6E700000E08A403002050
:1007C00030B5002495B02146142203A8CDE9094490
:1007D00024F065F81D4B01941A6C42F080521A64A3
:1007E0001B6C03F080530193019B194B02941A6810
:1007F00042F440421A601B6803F440430293029B98
:100800000A23102208930123CDE90B3208210D930E
:10081000B423CDE910130225042308A81393CDE9CE
:100820000E54129506F024FE06F0E8FD0F23CDE9E4
:1008300003354FF4A0504FF48053CDE90603052152
:1008400003A8059406F0F0FF15B030BD0038024053
:10085000007000402DE980489BB005F097F9FFF744
:10086000AFFFFFF78FFF142200210DA8002424F012
:1008700016F8C74B00941A6BC648C74E42F01002D8
:100880001A631A6B02F010020092009A01941A6B1C
:1008900042F020021A631A6B02F020020192019AC0
:1008A00002941A6B42F080021A631A6B02F0800203
:1008B0000292029A03941A6B42F004021A631A6BB2
:1008C00002F004020392039A04941A6B42F00102AC
:1008D0001A631A6B02F001020492049A05941A6BCF
:1008E00042F002021A631A6B02F002020592059AA4
:1008F00006941A6B42F040021A631A6B02F040022F
:100900000692069A07941A6B42F008021A631B6B50
:1009100003F00803079322463C21079B05F0EAFCFD
:100920009E482246042105F0E5FC22469C484FF4EF
:10093000405105F0DFFC01253C234FF0030A9548A8
:10094000CDF840A00DA902274FF00409CDE90D35DF
:100950000F9405F0E5FB91480F940DA94FF008089E
:10096000CDE90D95109705F0DBFB8E480DA9CDE97B
:100970000D85CDE90F4405F0D3FB8B480DA9CDE9DA
:100980000D95CDE90F4405F0CBFB4FF4405384485F
:100990000DA9CDE90D35CDE90F4705F0C1FB4FF4A9
:1009A000C0430DA97F48CDE90D35CDE90F4705F0CE
:1009B000B7FB7E487E4A04614FF4E133C0E900236F
:1009C0000C23C0E90534C0E90244C46108F059F8B9
:1009D000142221460DA823F062FF764BB461C6E9CC
:1009E00000344FF0FF0B7F233046C6E9023BC6E9D7
:1009F0000444099407F04FF940F60773ADF834301A
:100A000022461A230DA930468DF83630CDE9104420
:100A100007F09AF92246684B099309A9304607F076
:100A200000FA6648664B674E036005F041F9664977
:100A3000664B3462C6E9001330464FF48043C6E982
:100A40000434C6E90244C6E9064405F061FE1021FB
:100A5000304606F0F9FA2146304606F014FB5C4EAB
:100A60005C484FF482734FF4007CC0E900631823A4
:100A7000C0E906C30A23584EC362C0E90244C0E974
:100A80000444C0E90844846207F044FB534B0D97CB
:100A90004FF0100EC6E900354023C6E904E34FF4D9
:100AA000C073C6E906344FF40063C6E908344FF456
:100AB0000053B3620DA907233046CDE90E39CDE9C5
:100AC000103AC6E90249CDE9127707F006FA4FF667
:100AD000FF7209A93046CDE90958CDE90B540894B5
:100AE00007F01BFA284605F07DF84FF6FF7209A9BA
:100AF0003046CDE90978CDE90B5407F00EFA4FF6F0
:100B0000FF7209A93046CDE909A8CDE90B9407F099
:100B100004FA4FF40C730893089B0C934FF6FF7282
:100B200009A93046CDE909980B9507F0F6F940F28E
:100B30006A51304607F00FFA342221460DEB0200CD
:100B400023F0ADFE264E274B3461C6E9003409235D
:100B5000C6E905351D23C6E9073A40F20D1940F2F2
:100B60004313C6E90993304640F2471340F2171A7F
:100B7000C6E90BA3C6E90244B48686F8364006F0FF
:100B800027FBF022CDE912B405214FF4806B2BE056
:100B900000380240001002406004002000080240BB
:100BA000000C024000180240000402401C04002017
:100BB00000100140002800400201051948060020ED
:100BC00000300240B4050020005C0040801A06009E
:100BD00000500140B404002080040020400100A027
:100BE0000C050020006801404FF4A073CDE90E24ED
:100BF000CDE914B1CDE916420DA922463046CDE922
:100C00001037324E18930D94ADF864408DF866405D
:100C100006F0A9FB2E4B33601B68984733682D4EB6
:100C2000DB6898472C4B3046C6E90034C6E90274AD
:100C3000C6E90A47C6E90C4405F04AF82946304699
:100C400005F0FEF8254E00F04CFE00F049FE244A67
:100C5000B4605923C6E90023304640F2E733F3601D
:100C6000CDE90D44B46107F041FE0DA93046CDE950
:100C70000D4407F067FE07F0DBFF1A4A294640469D
:100C800008F004F9184B194A18602946404608F044
:100C9000FDF8174B174A18602946404608F0F6F849
:100CA000154B164A18602146154807F0F4FF154BFE
:100CB000154A18602146154807F0EDFF144B1860DF
:100CC00007F0C8FF304607F0D3FCFEE7040400201D
:100CD0001C0000200806002000B00240BC030020D9
:100CE000001000408C5502081004002074550208C2
:100CF0000C0400205C55020808040020C8550208B6
:100D00000D12000818040020A4550208F11800086C
:100D100014040020704770477FB5094B8DF81720E9
:100D20001B6802930DF117020123009201930A46FA
:100D30000146044805F0E8FF07B05DF804FB00BF7A
:100D400008000020B40500207FB500238DF817307F
:100D5000084B1B6802930A4601230DF1170100910D
:100D600001930146044806F05FF89DF8170007B0AC
:100D70005DF804FB08000020B40500201FB5084CF6
:100D800024680092CDE901340A4601230146054852
:100D900006F04AF8003818BF012004B010BD00BFAB
:100DA00008000020B405002004F01CBF10B5064C5C
:100DB00000222046042105F09DFA20460122BDE8CC
:100DC0001040042105F096BA0008024038B50B4DDA
:100DD000044601220A484FF4005105F08BFA002224
:100DE0000421284605F086FA2046FFF743FC2846F2
:100DF0000122BDE83840042105F07CBA0008024019
:100E0000000C024038B50B4D044600220A484FF44E
:100E1000005105F06FFA00220421284605F06AFA15
:100E20002046FFF727FC28460122BDE83840042170
:100E300005F060BA00080240000C0240F7B5144EFD
:100E4000144F05460C4630460022042105F052FAA4
:100E500000224FF40051384605F04CFA2846FFF7BF
:100E600009FC0D4B0D481B68224601A907F059FBF0
:100E7000384601224FF40051019C05F03BFA304600
:100E80000122042105F036FA204603B0F0BD00BF70
:100E900000080240000C024004000020B4040020BE
:100EA00004F0A0BE034B1B6800225A625A6A8242B9
:100EB000FCD37047BC0300207FB50023CDE90112AD
:100EC00005930122022301A9CDE9032305F028F9A6
:100ED00007B05DF804FB000010B50D4C1122204650
:100EE0000421FFF7E9FF00222046042105F002FA61
:100EF0004FF4FA70FFF7D6FF042120460022FFF7D7
:100F0000DBFFBDE810404FF4FA70FFF7CBBF00BF26
:100F10000018024070B5154E0446082513481122EA
:100F20000421FFF7C9FF00221048042105F0E2F96F
:100F30000220FFF7B7FF14F0010218BF01220421BD
:100F4000304605F0D7F93C20FFF7ACFF0421002222
:100F50003046FFF7B1FF013D0220FFF7A3FF15F078
:100F6000FF054FEA5404D9D170BD00BF00180240FC
:100F700070B50025154E2C46112204213046FFF78E
:100F80009BFF00220421304605F0B4F90220FFF750
:100F900089FF042100223046FFF78EFF0820FFF76B
:100FA00081FF0421304605F09FF9012804BFA840C5
:100FB000044305F101054FF0780008BFE4B2FFF7E4
:100FC00071FF082DD8D1204670BD00BF0018024027
:100FD00038B52DED028BFFF77FFFCC20FFF79AFF8E
:100FE00044200024FFF796FFFFF7C2FF01340546B7
:100FF000012007F097FEA4B215B9B4F5FA6FF3D14A
:10100000FFF76AFFCC20FFF785FFBE20FFF782FFC6
:10101000FFF7AEFF0446FFF7ABFF000280B20443C8
:10102000A4B208EE104ABBEECE8AC82007F07AFEC2
:10103000B0EE480ABDEC028B38BD00001FB5072397
:101040008DF80F3007480A2300930DF10F0201239A
:101050004621006805F004FC003818BF012005B0E7
:101060005DF804FBA003002030B5A0F11F03DBB244
:10107000DF2B85B002D9012005B030BD114B124CD9
:1010800018700A25430900F01F0043F0400340F0A8
:10109000600000958DF80C308DF80D00012320685C
:1010A00003AA462105F0DCFB0028E4D10095206866
:1010B00001230DF10D02462105F0D2FB003818BFC7
:1010C0000120D9E79C030020A003002008B5074BAE
:1010D0001860FFF7B3FF30B94520FFF7C5FF0038B0
:1010E00018BF012008BD0120FCE700BFA0030020BD
:1010F0001FB503098DF80F0014D010F00C0F11D19B
:10110000094B18700A2309480093006801230DF168
:101110000F02462105F0A4FB003818BF012005B0DE
:101120005DF804FB0120FAE79D030020A0030020E6
:101130001FB50A230446194800930068022303AA36
:10114000462105F067FC38BBBDF80C305BBA9BB29A
:1011500007EE903A124B1B78452BF8EEE77A09D050
:1011600007EE103A9FED0F6AB8EE477AC6EE076AAF
:1011700067EEA67A0C4B1B78212B01D0112B03D1E3
:10118000B6EE007A67EE877ADFED086A87EEA67A18
:1011900084ED007A04B010BD0120FBE7A00300201D
:1011A0009C03002000008A429D0300209A99993FE9
:1011B000012808B503D1BDE80840FFF76DBA06481D
:1011C0000022082105F096F8BDE8084002480022F8
:1011D0004FF4005105F08EB800180240012808B500
:1011E00003D1BDE80840FFF769BA06480022042190
:1011F00005F080F8BDE80840034800224FF4804124
:1012000005F078B800040240001802402DE9F341CF
:1012100007F03AFD04463148314FDFF8CC80314EBB
:10122000FFF754FF1120FFF763FFFFF7D1FEFCEE3D
:10123000C07A002217EE903A0DF102018DF80230CB
:1012400038680A2307F05DFE01A8FFF771FF024628
:1012500070B9DDED017AD8F80000FCEEE77A0DF107
:10126000030117EE903A8DF803300A2307F049FE88
:10127000306807F0A7FE08B34FF0FF333068002254
:101280000DF1030107F06EFE9DF803304C2B01D1E8
:10129000FFF702FA9DF803306C2B02D10020FFF714
:1012A00087FF9DF80330462B01D1FFF707FA9DF821
:1012B0000330662B02D10020FFF790FF07F0E4FC1B
:1012C00047F22F53021B9A42054602D9FFF730FA24
:1012D0002C464FF4967007F025FDA6E7B4050020D4
:1012E00010040020080400200C0400200268034BB6
:1012F0009A4201D104F064BC704700BF0010004066
:101300007047000082B00E4B00220092596C41F4ED
:1013100080415964596C01F4804100910099019217
:10132000196C41F0805119641B6C03F080530193D8
:10133000019B0F216FF0010002B004F079BC00BFE7
:10134000003802400268094B9A4282B00BD1002358
:101350000193074B1A6B42F480521A631B6B03F420
:1013600080530193019B02B0704700BF00300240E0
:101370000038024007B50F4B02689A4216D100228E
:10138000A3F5F0430192196B41F4000119631B6B43
:1013900003F40003019305215A20019B04F048FC4B
:1013A0005A2003B05DF804EB04F074BC03B05DF8A0
:1013B00004FB00BF00B002402DE9F043044689B0B1
:1013C0001422002103A823F06AFA2268244B9A42CF
:1013D00043D1244C244800250095236B43F004039B
:1013E0002363236B03F004030093009B0195236B9D
:1013F00043F001032363236B03F001030193019B7B
:101400004FF012094FF400734FF001080327042630
:1014100003A9CDE90339CDE90587079604F080FEDD
:101420004FF480731148079603A9CDE90339CDE93C
:10143000058704F075FE0295236C43F400032364D2
:10144000236C03F400030293029B236A43F400031A
:101450002362236A23F40003236209B0BDE8F0830A
:10146000005C0040003802400008024000000240DA
:10147000F0B599B004461422002107A823F00FFA12
:1014800030220DEB0200002123F009FA22685E4BA6
:101490009A4240F0B78008230C93C0231093042392
:1014A00012930CA84FF40033159306F095FA08B187
:1014B000FFF726FF554B5648002400945A6C42F023
:1014C00080625A645A6C02F080620092009A019421
:1014D0001A6B42F020021A631A6B02F0200201928A
:1014E000019A02941A6B42F001021A631A6B02F01D
:1014F00001020292029A03941A6B42F002021A63EA
:101500001A6B02F002020392039A04941A6B42F0DF
:1015100040021A631A6B02F040020492049A059486
:101520001A6B42F004021A631A6B02F0040205926D
:10153000059A06941A6B42F008021A631B6B03F0BB
:101540000803069302250E26069B0B964FF4806334
:1015500007A9CDE90735CDE9094504F0E1FD41F6DC
:1015600058032C480B9607A9CDE907350927CDE983
:10157000094504F0D5FD032327480B9707A9CDE9BA
:101580000735CDE9094504F0CBFD4FF470632248DF
:101590000B9607A9CDE90735CDE9094504F0C0FD53
:1015A0004FF40C631D480B9607A9CDE90735CDE92B
:1015B000094504F0B5FDC02319480B9607A9CDE9EC
:1015C0000735CDE9094504F0ABFD082315480B9616
:1015D00007A9CDE90735CDE9094504F0A1FD4FF490
:1015E000A0530E480B9707A9CDE90735CDE909456A
:1015F00004F096FD58202246052104F019FB5820DE
:1016000004F048FB19B0F0BD00680140003802400A
:101610000014024000000240000402400018024092
:1016200000080240000C024010B5044688B01422A5
:10163000002103A823F033F92268144B9A4223D1E6
:1016400003F56843002101915A6C114842F480125D
:101650005A645A6C02F480120192019A02911A6B38
:1016600042F020021A631B6B03F020030293029BDB
:101670004FF4607202230321CDE903230523CDE952
:10168000061303A904F04CFD08B010BD0050014042
:10169000001402402DE9F04186B0002303932B4B48
:1016A0001C68002C4FD14FF00108C3F80080284B74
:1016B00000949A6B274842EA08029A639B6B03EAFC
:1016C00008030093022703260C25009B01A94FF66F
:1016D0003F03CDE90137CDE9046504F021FD1E4843
:1016E000059501A9CDE90187CDE9034604F018FD70
:1016F00048F233131948059501A9CDE90137CDE921
:10170000034604F00DFD4FF683731548059501A9B6
:10171000CDE90137CDE9034604F002FD4CF2037335
:101720001048059501A9CDE90137CDE9034604F03C
:10173000F7FC60230C48059501A9CDE90137CDE9F7
:10174000034604F0EDFC06B0BDE8F0815006002031
:101750000038024000140240000802400018024015
:1017600000100240000C02400004024070B588B036
:1017700000230293204B1A6C42F010021A641B6C77
:1017800003F010030293054601A903A8029B06F08B
:1017900005F9069B4BBB06F0E1F8184E184B336079
:1017A00040F2E733F360174BB0FBF3F3013B736098
:1017B000304600233361B360B36107F097F8044605
:1017C00080B9304606F054FF044658B9362004F07C
:1017D00061FA0F2D0DD822462946362004F028FA4A
:1017E000094B1D60204608B070BD06F0B7F84000F8
:1017F000D3E70124F6E700BF00380240540600207A
:101800000010004040420F00840000207047FEE7B7
:10181000FEE7FEE7FEE77047014806F067BF00BF3E
:1018200054060020014805F041BD00BF0C05002012
:10183000014804F07BBA00BF080600200120704771
:1018400008B523F0CFF8162303604FF0FF3008BD32
:1018500008B523F0C7F816230360FEE770B50D4600
:1018600014460E46731B9C4201DC204670BDAFF34C
:10187000008006F8010BF5E770B50D4614460E46DC
:10188000731B9C4201DC204670BD16F8010BAFF3C0
:101890000080F5E74FF0FF3070474FF400534B6086
:1018A0000020704701207047002070470A4A1168E5
:1018B00008B5034609B9094911601068694603442F
:1018C0008B4206D923F08EF80C2303604FF0FF30D3
:1018D00008BD1360FCE700BF9C060020403A0120D1
:1018E000704708B500F0A8FDBDE8084000F02CBD29
:1018F00000F0A4BD704710B50421044621F070FE2D
:10190000204610BD38B50C4B0C4C18800C4B822077
:1019100019806368984740F6110398420AD1094D2F
:1019200023682C60822098472B688220DB689847C8
:10193000002038BD0120FCE7AA060020540000204A
:10194000A8060020AC0600204FF4A071F020FFF79D
:10195000D9BF0000F7B5334D2B6804461B698220C0
:101960009847208000284AD02B680DF106025B6959
:1019700001A982209847BDF8063040F67462934270
:101980003FD9ADF80620BDF80630D21A92B20A2A25
:101990003DD90B23B2FBF3F2234B1B889A4201D9AA
:1019A000013B9AB2BDF8043040F6B8318B4230D8D2
:1019B000C3F571630E339BB20F21B3FBF1F31B49E7
:1019C00009888B4201D901398BB2194E194D306803
:1019D0002F68834281B28CBF591AC91AB8B2BA4271
:1019E0008CBF101A801A89B280B201440529C8BF81
:1019F00033603368C8BF2A6063802B68A38003B05C
:101A0000F0BDB32B9CBFB423ADF80630BBE700227A
:101A1000C8E7C3F56D6308339BB20E2BCCD8002307
:101A2000D3E700BFAC060020A8060020AA060020CD
:101A3000A4060020A006002037B568460D461446CF
:101A4000FFF788FFBDF8000030B1BDF802302B6011
:101A5000BDF804302360012003B030BD032821D835
:101A6000DFE800F0020B12190F4B1A68B2FA82F28B
:101A7000520904210D4804F03DBC0B4B5A68B2FAE0
:101A800082F252090821F5E7074B9A68B2FA82F20E
:101A900052091021EEE7044BDA68B2FA82F25209D9
:101AA0002021E7E7704700BFB00600200010024089
:101AB000032821D8DFE800F0020B12190F4B1A6837
:101AC000003A18BF012204210D4804F013BC0B4B4F
:101AD0005A68003A18BF01220821F5E7074B9A68B7
:101AE000003A18BF01221021EEE7044BDA68003AF1
:101AF00018BF01222021E7E7704700BFB006002091
:101B00000010024003280DD8DFE800F00206080AA2
:101B10000421054804F0F3BB0821FAE71021F8E797
:101B20002021F6E7704700BF0010024008B50328E7
:101B300011D8DFE800F0020A0C0E0421074804F077
:101B4000D3FB431E5842584108BD0821F6E7102137
:101B5000F4E72021F2E70020F3E700BF0010024085
:101B600070B5084D00240126E0B2FFF7DFFF18B181
:101B70002B68012B18BF2E600134052C05F10405DC
:101B8000F2D170BDB0060020012380F8781080F8F3
:101B90007930704700207047034B4164003918BF0B
:101BA00001211970704700BFFF2C012000207047F1
:101BB000836B0BB10846184770474FF6FF707047AC
:101BC000406803689B69184770477047704700007A
:101BD00010B5044600F040FD23680349D3F88C306B
:101BE0002046BDE810401847000000D008B5036843
:101BF0000446D3F880309847236820469B6F984767
:101C000000F0ECF8236820461B6F98472920FFF767
:101C1000F9F800F0E3F8236820461B6F9847F8E7CF
:101C200010B504460AF05EF923682046D3F8AC30BC
:101C3000BDE81040184700F0F1BC00F0F5BC00F022
:101C400029BD00F0C7BC00F039BD00F041BD00F077
:101C5000CBBC09F0B3BB10B57C21044621F0C0FC1D
:101C6000204610BD10B590F8341090F878400C4B19
:101C70008C421A7809D03AB90A4A0B491488088864
:101C800010800C8001221A7010BD002AFCD0054A79
:101C900005491488088810800C800022F3E700BFF3
:101CA000F82C0120F42C0120F62C012070B50D46F3
:101CB000194635B9094B0A4A0A4840F2D22122F0A6
:101CC000D5FBC0E90F52084B003A18BF01221A7029
:101CD0000368BDE87040D3F88C30184704560208FA
:101CE0003C5602088A560208FE2C012008B5094B12
:101CF0001B888B4203D8084B1B88934205D9074B9E
:101D0000074A08489E2122F0B1FB074B1980074B78
:101D10001A8008BDF42C0120F62C0120CF560208B1
:101D2000325702088A560208FA2C0120FC2C0120A6
:101D3000034690F87A0018B1586803681B68184782
:101D400070470000012108B50022084606F0F6FFA2
:101D50000A4B186028B90A4B0A4A28210A4822F07F
:101D600085FB00220421012007F090F8074B186042
:101D700018B9074B034A2C21F0E708BDC406002020
:101D80005058020899580208C8580208C006002096
:101D900036590208024B4FF0FF31186807F018B8A7
:101DA000C4060020014B186807F03EB8C4060020A6
:101DB000024B0021186807F00BB800BFC4060020D2
:101DC000FFF7F0BF03480449006800231A4607F0F4
:101DD00098B800BFC00600200C00002013B5084CC6
:101DE00000231A4601A9206807F0BCF820684FF0CC
:101DF000FF33002201A907F0B5F802B010BD00BF03
:101E0000C006002003685B6C184701207047036818
:101E10009B6A1847FEE740F2EF307047054B0360BE
:101E2000054B4FF08062C3F88820BFF34F8FBFF39C
:101E30006F8F7047F45A020800E100E010B50446C5
:101E40004FF45A61FFF7EAFF204621F0C9FB204614
:101E500010BD000082B0002301930E4B1A6B42F4B8
:101E600000021A631A6B02F400020192019A1A69C5
:101E700042F400021A611A6922F400021A61064B48
:101E8000064A1A61064A5A61064B4FF080629A6010
:101E900002B070470038024008060020F520000814
:101EA000151E000800E100E008B50A2809D8DFE89F
:101EB00000F006100E08080808101010100002208C
:101EC00008BD054B054A0648902122F0CFFA0020B4
:101ED000F6E70120F4E700BF785902089359020899
:101EE000DE59020838B50C46887FFFF7DDFFA58A6A
:101EF000E28A164B2169586342EA05425A64628BB2
:101F0000D963521B1A642568082D0ED19A611A6193
:101F10005862207F0E4A42EA0062DA61E2681A6281
:101F20000C4A5961D9601A6038BD0022D8611A6123
:101F3000E1680A0A480902F4784200F4FC600243AE
:101F4000C1F3C4010A439A63034AECE700B00240BC
:101F500009000100012302000123030008B50B283A
:101F60000BD8DFE800F00612100A0A0A0A0808086F
:101F70000808022008BD0520FCE7054B054A064875
:101F80006F2122F073FA0020F4E70120F2E700BF8E
:101F9000785902084A5A0208DE5902082DE9F04130
:101FA00091F81D800C464046FFF7D8FFA77F0546F5
:101FB0003846FFF7D3FF06463846FFF775FFA18A7C
:101FC000628B444B521A1A649A61228B521A1A611C
:101FD000E28A586342EA01425A6421696268D9631D
:101FE000DA602068802828D0227F0FD8202867D088
:101FF000402865D004281AD0364B45EA026545F4DE
:102000000035B845DD6161D0334A44E0B0F5807FEA
:1020100004D0B0F5007FEFD1304800E0304840EA0E
:102020000262DA61E2681A625E62596132E045EA90
:10203000026242F40032DA61F6E7A068021DDA6259
:10204000227F45EA026545F40035DD615E62596133
:10205000017841B1012921D0224B234A23484FF472
:102060008D7122F003FADA69418822F47F42013946
:1020700022F0100242EA0122DA610121154BDA69ED
:1020800042F02002DA61DA699206FCD410229A60EA
:102090000029B9D0164A1A60BDE8F081B2F1FF01FB
:1020A000DA69408822F47F4200F1FF3022F010020A
:1020B00042EA002242F0100218BF0121DA61DDE796
:1020C00045EA0262034B42F40032B4E742F20132C5
:1020D000E1E700BF00B00240012301000900020057
:1020E0000A000200945A0208AE5A0208DE59020899
:1020F00001230200024B1B68586803685B6918479C
:10210000002D012070B5044625460A4B0C300026F0
:1021100060602672667245F8203B602229460AF00C
:1021200039F804F55A63EE6024359D42FBD1204610
:1021300070BD00BFF45A0208034B1A68D207FCD4E2
:1021400023229A60704700BF00B002407047000031
:1021500030B50F4C2568ED07FCD423250904A56094
:1021600041F001010225FF2B65636164E0630AD041
:102170000849656241EA0363E361074B22626061DB
:10218000E060236030BDE561039BA363034BF8E788
:1021900000B002400900010001000200010003003C
:1021A00030B50E4C2568ED07FCD423251204A5603C
:1021B00042F001020225FF2B65636264E063E16087
:1021C00008D01B0643F00213E361054B65626061B2
:1021D000236030BD034BE3610123F9E700B0024007
:1021E00001000200020002FF30B50B4C2568ED072C
:1021F000FCD4232512041B06A56043F400330225FA
:1022000042F0010265636264E063E160E361034BF5
:1022100065626061236030BD00B0024001000200D1
:102220000120704738207047382303FB0100083035
:102230007047382303FB01000830704701207047C6
:102240004FF4C56070474FF4C56303FB01000830CD
:1022500070474FF4C56303FB01000830704701204D
:1022600070471020704700EB01100830704700EBFA
:10227000011008307047084600F07CBD10B5034BD4
:102280000360044608F0F1FD204610BDAC5B020877
:1022900010B50446FFF7F2FF2046402121F0A0F9D7
:1022A000204610BD10B5034B0360044608F0DDFD69
:1022B000204610BD785B020810B50446FFF7F2FF18
:1022C00020464FF4C66121F08BF9204610BD000076
:1022D00010B5034B0360044608F0C7FD204610BD4F
:1022E000445B020810B50446FFF7F2FF20461821B0
:1022F00021F076F9204610BD10B5084B0360044666
:1023000000F25C60FFF7BAFF04F12C00FFF7CAFF90
:1023100004F11400FFF7DCFF204610BDE05B02086B
:1023200008B50248FFF7E8FF08BD00BF9815002078
:1023300010B50446FFF7E0FF204640F2FC7121F0A3
:102340004FF9204610BD00002DE9F34100F0B8FA26
:10235000054600F0B9FA00240146234628462246E5
:10236000009412F0E1F8274B274A1A60204602F049
:10237000CDFD264D264B274A27489A6012F03CF89F
:102380002B68BFF35B8FDB0735D4284621F02AF991
:1023900088B3224C224B236004F5D46604F1140068
:1023A00004F12C0804F25C676060C4F80880E76000
:1023B000266108F05BFD1B4B6361404608F056FD4B
:1023C000194BE362384608F051FD184BC4F85C36EF
:1023D00004F29C6002F024FE224604F29C61304626
:1023E00002F014FE304600F0C5FC114822F05CF803
:1023F000284621F003F90F4802B0BDE8F041FFF78D
:10240000E7BB00BF642D0120440700209415002085
:1024100064070020480700201000002098150020C5
:10242000E05B0208445B0208785B0208AC5B0208D0
:1024300021230008C8060020704700000148FFF76C
:10244000D5BB00BFC806002070B5244E244C254DD6
:10245000254B23603046FFF755FE284617F06AF9F2
:1024600022480FF0C5FD224B2248DC6000224FF4C9
:102470008071C3E9121220491A86C3E91A121F4952
:1024800099671F4983F858200B60F02101801D488F
:102490005A6601801C4883F870204FF4A071C3E98C
:1024A0000422C3E90622C3E90822C3E90A22C3E9D8
:1024B0000E22C3E91022C3E91422C3E917225A6786
:1024C000C3E9016501801148018011490A700122A8
:1024D00083F834200F4A1A6070BD00BFF007002057
:1024E0009015002064070020F455020848070020DA
:1024F000C8060020F42C01200100000100000101A9
:10250000002D0120FA2C0120F62C0120FC2C0120AA
:10251000F82C0120805702080148FFF77FBC00BF5C
:10252000F00700200020704781807047C18070470D
:10253000018170474181704770477047704770470D
:10254000704710B4C4880368121B84885B6D091B34
:1025500012B25DF8044B09B218474FF6FF7383813E
:102560004FF0FF3303621368C361106070470020AF
:1025700070478B88838001207047704780F8261051
:10258000704790F82600704710B50022B1F9084056
:10259000B1F90A10028042808480C18010BD0022FF
:1025A000028042808280C28070470177704780ED50
:1025B000080A704780F82410704780F8251070478B
:1025C00001207047983070478C30704784307047D6
:1025D00070470000034B902283F85A2383F8582356
:1025E000704700BF00E100E0094A0A49D3680A4881
:1025F000C3F30A03013B9BB20B801169C1F30A01CB
:10260000013901801364536B43F001035363704736
:1026100000680140961D0020941D0020014BD3F856
:10262000AC00704700680140024B0122C3F8AC10B7
:102630005A627047006801407047704710B52C21FE
:10264000044620F0CDFF204610BD10B5BC21044645
:1026500020F0C6FF204610BD70B5044608F003FF09
:1026600023685D6E0EF070FB01462046A847236884
:10267000054AD3F888502046AC460023BDE8704098
:10268000A2F51631604700BF00B004D008F0D2BEFA
:1026900008F0DCBE08F098BE08F0F9BF90F82520DD
:1026A00012B103685B691847704790F825201AB18A
:1026B00090F8242002B1186070470000034B4FF0DF
:1026C00080629A604FF080729A60704700E100E08B
:1026D000084B4FF08062C3F88820BFF34F8FBFF3E1
:1026E0006F8F4FF08072C3F88820BFF34F8FBFF316
:1026F0006F8F704700E100E070B50023124E8380B9
:10270000124B0360336893F8582005460AB1D86C21
:1027100000B998680368DB6A98473368B0FA80F4B8
:10272000D86C640930B10368DB6A9847002808BF99
:1027300044F001042CB9064B064A07482C2121F02D
:1027400095FE284670BD00BF002D0120F05C0208F8
:10275000EC5B02084A5C0208835C020870B5244EF8
:102760003568BFF35B8F15F001053FD1304620F08F
:1027700039FF00283AD01F4C1F4B256104F134006B
:10278000C4E90035C4E90255E584A562A5850FF0CA
:102790008EFE04F158000BF0F9F8184BA3652046A3
:1027A000174B40F8843BFFF7A7FF164BC4F8843063
:1027B0002433C4F88C306423C4E928350023C4F8DA
:1027C000AC30C4F8B030C4F8B430C4F8B8300E48F7
:1027D0000E4BC4F89050C4F89C50C4F8A850C4F8EC
:1027E000983021F061FE304620F008FF014870BDAE
:1027F000981D00209C1D002028770208105D02080B
:10280000885D0208DC760208D1250008BC76020843
:1028100010B5144C236823B3134B144A1B6C118856
:102820008B4213D1124B198804F0CAFD226892F82A
:102830006A30013382F86A30FFF7C4FA206809F081
:1028400051FBBDE810400020FFF708B904F0B8FDC7
:10285000206803681B6A9847BDE810400020FFF716
:1028600027B910BD002D012000680140961D0020F1
:10287000941D0020704708B5042918D8DFE801F03E
:1028800003070B0F130002F08DFB006808BD02F078
:1028900089FB4068FAE702F085FB8068F6E702F002
:1028A00081FBC068F2E702F07DFB0069EEE70020E3
:1028B000ECE710B50421044620F092FE204610BD3E
:1028C00000487047E05D02080520704713B50024FA
:1028D00051B1036801948DF8034001AA9C680DF181
:1028E0000303A04702B010BD0846FBE7C08970474C
:1028F000008A7047C088704780887047807A00F0EF
:102900007F007047807AC009704700207047000040
:102910009FED010A704700BF00000000704710B52E
:102920000821044620F05CFE204610BD7047704729
:1029300000F598730868496803C37047704770478B
:102940004160704710B50022B1F90840B1F90A1092
:10295000028042808480C18010BD704770470000B3
:10296000064BC0F84C310023C0F8503100F5A2737B
:10297000C0F84801C0F84031704700BF212E000860
:102980000123037270477047704770477047704764
:10299000704701464068036810315B6E184770B598
:1029A000054640680368DB69984704463CB9686897
:1029B000036805F110011B6EBDE870401847A1883F
:1029C000AB89C91A236820461B6B09B29847A469D2
:1029D000ECE7704701464068036810315B6E1847AA
:1029E00001464068036810311B6E18477047014666
:1029F0004068036810315B6E184701464068036801
:102A000010311B6E1847704710B4C26841685410EB
:102A1000034601EB6200D20748BF0A599B685DF884
:102A2000044B48BFD35818470346406830B19A68F2
:102A30001AB9D86800F0010070470120704710B53E
:102A40000C21044620F0CCFD204610BD10B510210D
:102A5000044620F0C5FD204610BD10B54FF4AE7100
:102A6000044620F0BDFD204610BD10B538210446B7
:102A700020F0B6FD204610BD10B52821044620F0F8
:102A8000AFFD204610BD10B53821044620F0A8FD4A
:102A9000204610BD10B53821044620F0A1FD204687
:102AA00010BD10B50EF050F90368BDE81040DB6BA7
:102AB0001847000037B50546807A6B7A0130C0B2FE
:102AC0009842A87205D901232B720023AB7203B080
:102AD00030BDB5F90C20B5F90E40002110F050F9C9
:102AE000C30706D500284FF6FF73C8BF012318445B
:102AF00000B2AB7AE881041B012BA4B206D1174BBC
:102B00001B781BB10EF020F90EF024F9144A0023B3
:102B10001288ADF80230EB891A445B42ADF80430FC
:102B2000104BADF800201B88ADF806300EF00CF904
:102B3000036802AA12E906001B6C984768680368DC
:102B4000DB6998470546002DC1D0A9882B68214430
:102B500028461B6B09B29847AD69F4E7FE2C0120AB
:102B6000F42C0120F62C012037B50446807A637AD4
:102B70000130C0B29842A07205D90123237200230C
:102B8000A37203B030BDB4F90C20002110F0F8F8A6
:102B9000C30706D500284FF6FF73C8BF01231844AA
:102BA00000B2144BE0811988258B83B21248B0F92A
:102BB0000000ADF80600CA1A60682B445B1A12B216
:102BC000ADF8043003682283ADF8002000221B69B1
:102BD000ADF8022069469847A37A012BD1D1074B63
:102BE0001B78002BCDD00EF0AFF803B0BDE830401D
:102BF0000EF0B0B8F42C0120F62C0120FE2C0120A0
:102C000010B50446D0F8400158B10368DB68984716
:102C100038B1D4F8400103689B6898470023C4F892
:102C2000403110BD13B50446807A637A0130C0B2DA
:102C30009842A07205D9012323720023A37202B027
:102C400010BDB4F90C20002110F09AF8C30706D586
:102C500000284FF6FF73C8BF0123184400B2144A7E
:102C6000B4F914101288E08183B2A0820020D21A35
:102C7000ADF80200606822835B1A0E4AADF804309A
:102C80000368B2F900201B69ADF80010ADF806200A
:102C900069469847A37A012BD1D1074B1B78002BAB
:102CA000CDD00EF051F802B0BDE810400EF052B891
:102CB000F42C0120F62C0120FE2C01202DE9F041FE
:102CC0001D460368BDF918701B6B044616469847ED
:102CD0002368314620465B6B984723682946204687
:102CE0009B6B9847236839462046DB6BBDE8F04173
:102CF00018470000044B1B6893F858200AB1D86CA1
:102D000000B99868704700BF002D0120F8B517463C
:102D100004460E460EF002F9124B1C60124B236063
:102D2000124B0025C4E95135114BC4E953551868BD
:102D3000036801219B68C4E94F55C4E9557698475B
:102D4000284602F0E3F8FFF7D5FF18F046FBFFF73F
:102D5000D1FF18F0BDFBFFF7CDFF18F0C5FB2046F3
:102D6000F8BD00BF542D01205C65020844650208CF
:102D7000002D0120064BC0F84C310023C0F8503123
:102D800000F5A273C0F84801C0F84031704700BF99
:102D9000212E0008064BC0F84C310023C0F85031FA
:102DA00000F5A273C0F84801C0F84031704700BF79
:102DB0008D2F0008064BC0F84C310023C0F850316D
:102DC00000F5A273C0F84801C0F84031704700BF59
:102DD00019310008064BC0F84C310023C0F85031BF
:102DE00000F5A273C0F84801C0F84031704700BF39
:102DF00039340008064BC0F84C310023C0F850317C
:102E000000F5A273C0F84801C0F84031704700BF18
:102E1000FD32000803685B6A184703685B6A18475D
:102E20002DE9F14FD0E9556A0746B06803681B6A7F
:102E30009847B0F5157F05D2434B444AA321444837
:102E400021F014FB706803681B6A98470F2803D8A9
:102E5000404B3E4AA421F2E7F06803681B6A98479A
:102E60000B2803D83C4B394AA521E8E70DF06CFF4D
:102E7000DFF8EC9004300DF0B4FFD9F8000010B189
:102E80000368DB689847D9F8000010B103681B6835
:102E90009847DFF8D080D8F8000010B103685B696C
:102EA0009847D7F83C0110B103685B689847D8F899
:102EB000000010B103681B689847D7F83C0110B1B7
:102EC00003689B689847F068036800215B6A98472D
:102ED0004FF0000B214B036004465946C0F804B084
:102EE00080F808B0B068FFF795FF054602F0CCF80F
:102EF00059467068FFF791FF2946064602F0A2F88E
:102F0000331DC7F83C61C9F80040C8F80050CAF842
:102F100000302B68C6F808A02846DB68EE639847A7
:102F2000336830461B689847214628460FF022FF39
:102F3000236820461B69984723685B69204601B0D7
:102F4000BDE8F04F184700BF545E0208E25E020879
:102F5000B45F0208FB5F02089E600208B0650208C9
:102F6000482D0120442D01200022C0E90122C0E9A2
:102F70000322C0E90522C0E907224FF4807282844F
:102F8000014A0260704700BFDC6402082DE9F74F78
:102F9000D0E955BA0746DBF8080003681B6A984772
:102FA000B0F5157F05D2524B524AA321524821F069
:102FB0005DFADBF8040003681B6A98470F2803D802
:102FC0004E4B4C4AA421F1E7DBF80C0003681B6A66
:102FD0009847372803D84A4B464AA521E6E70DF023
:102FE000B3FEDFF82C9104300DF0FBFED9F80000A1
:102FF00010B10368DB689847D9F8000010B1036886
:103000001B689847DFF80C81D8F8000010B10368FE
:103010005B699847D7F83C0110B103685B68984733
:10302000D8F8000010B103681B689847D7F83C0136
:1030300010B103689B689847DBF80C000368002117
:103040005B6A98472F4B036000264FF4A05300F1B2
:10305000100504460381314646608672C6812822E7
:10306000284621F01CFC2846FFF77EFF264B274A06
:10307000B3F90030B2F90020A3813146009228460E
:103080003246FFF71BFE3146DBF80800FFF7C2FEB1
:10309000054601F0F9FF3146DBF80400FFF7BDFEFD
:1030A0002946064601F0CEFF331DC7F83C61C9F83A
:1030B0000040C8F80050CAF800302B68C6F808A0D5
:1030C0002846DB68EE639847336830461B689847AC
:1030D000214628460FF04EFE236820461B6998477C
:1030E00023685B69204603B0BDE8F04F184700BF76
:1030F000545E020841610208B45F0208FB5F0208E7
:103100009E600208D4650208F42C0120F62C0120F0
:10311000482D0120442D01202DE9F74FD0E955BA63
:103120000746DBF8080003681B6A9847B0F5157F6F
:1031300005D2524B524AA321524821F097F9DBF8AD
:10314000040003681B6A98470F2803D84E4B4C4A6B
:10315000A421F1E7DBF80C0003681B6A98473728C5
:1031600003D84A4B464AA521E6E70DF0EDFDDFF80E
:103170002C9104300DF035FED9F8000010B1036831
:10318000DB689847D9F8000010B103681B689847BE
:10319000DFF80C81D8F8000010B103685B6998472C
:1031A000D7F83C0110B103685B689847D8F8000075
:1031B00010B103681B689847D7F83C0110B1036849
:1031C0009B689847DBF80C00036800215B6A98470E
:1031D0002F4B036000264FF4A05300F11005044666
:1031E0000381314646608672C6812822284621F036
:1031F00056FB2846FFF7B8FE264B274AB3F90030A6
:10320000B2F90020A3813146009228463246FFF7EA
:1032100055FD3146DBF80800FFF7FCFD054601F0DF
:1032200033FF3146DBF80400FFF7F7FD2946064679
:1032300001F008FF331DC7F83C61C9F80040C8F829
:103240000050CAF800302B68C6F808A02846DB6892
:10325000EE639847336830461B68984721462846F6
:103260000FF088FD236820461B69984723685B6937
:10327000204603B0BDE8F04F184700BF545E020877
:1032800025620208B45F0208FB5F02089E60020824
:10329000F8650208F42C0120F62C0120482D0120AD
:1032A000442D012073B5124B0360002500F1100678
:1032B000044645600572417285722946C5812822FF
:1032C000304621F0ECFA3046FFF74EFE094B1B88E2
:1032D0005A42A281084AB2F90020009230461BB23D
:1032E0002A462946FFF7EAFC204602B070BD00BF1F
:1032F0001C660208F42C0120F62C01202DE9F04771
:10330000D0E9556A0746B06803681B6A9847B0F56C
:10331000C56F05D2414B424AA321424821F0A6F88D
:10332000706803681B6A98470F2803D83E4B3C4AD5
:10333000A421F2E7F06803681B6A9847372803D88E
:103340003A4B374AA521E8E70DF0FEFCDFF8E090A4
:1033500004300DF046FDD9F8000010B10368DB68B9
:103360009847D9F8000010B103681B689847DFF848
:10337000C480D8F8000010B103685B699847D7F89B
:103380003C0110B103685B689847D8F8000010B1A1
:1033900003681B689847D7F83C0110B103689B6825
:1033A0009847F068036800215B6A98471421044637
:1033B000FFF778FFB068036800215B6A984705460D
:1033C00001F0A8FF7068036800215B6A98472946EE
:1033D000064601F069FF331DC7F83C61C9F800409B
:1033E000C8F80050CAF800302B68C6F808A0284674
:1033F000DB68EE639847336830461B689847214680
:1034000028460FF0B7FC236820461B6998472368BD
:1034100020465B69BDE8F047184700BF545E0208CC
:1034200009630208B45F0208FB5F02089E6002089D
:10343000482D0120442D01202DE9F047D0E9556A9F
:103440000746B06803681B6A9847B0F58B6F05D2D2
:10345000414B424AA321424821F008F870680368B2
:103460001B6A98470F2803D83E4B3C4AA421F2E739
:10347000F06803681B6A9847372803D83A4B374AE5
:10348000A521E8E70DF060FCDFF8E09004300DF0D6
:10349000A8FCD9F8000010B10368DB689847D9F898
:1034A000000010B103681B689847DFF8C480D8F8A3
:1034B000000010B103685B699847D7F83C0110B170
:1034C00003685B689847D8F8000010B103681B6870
:1034D0009847D7F83C0110B103689B689847F0689B
:1034E000036800215B6A984714210446FFF7DAFE5F
:1034F000B068036800215B6A9847054601F000FE4A
:103500007068036800215B6A98472946064601F007
:10351000D5FD331DC7F83C61C9F80040C8F800501C
:10352000CAF800302B68C6F808A02846DB68EE63AE
:103530009847336830461B689847214628460FF065
:1035400019FC236820461B699847236820465B695D
:10355000BDE8F047184700BF545E0208EE6302085A
:10356000B45F0208FB5F02089E600208482D01203C
:10357000442D0120406A7047806A704770478B88ED
:10358000C0690A68DB0A50F823001044704710B580
:103590000446BAB1107B68B1537BD27A1B0203F4A4
:1035A000E0631A43236A03EB82031A888A4202D13A
:1035B00093F9020010BD05D8013880B20433002809
:1035C000F3D1F7E70020F5E710B52C21044620F0F1
:1035D00007F8204610BD000030B58BB00446BDF89A
:1035E00060500895BDF85C5007959DF850500695C1
:1035F0009DF84C5005959DF8485004959DF8445011
:1036000003959DF8405002959DF83C500195BDF8FA
:10361000385000950FF008F8064B2360159BE361C6
:10362000169B2362199B63621A9BA36220460BB010
:1036300030BD00BF40660208806A7047704770471F
:1036400070477047704770477047704770477047C2
:10365000704790F82C304BB100F16C021268C265D3
:103660003BB100F174031B680366704700F1680208
:10367000F4E700F17003F6E708B590F82C303BB1A1
:1036800000F1C4031B68C0F8A830FFF7E2FF08BDD3
:1036900000F1C003F6E77047704730B4C268446871
:1036A0005510034604EB6200D20748BF62599B687D
:1036B00030BC48BFD35818470346406830B19A68B9
:1036C0001AB9D86800F0010070470120704790F8DF
:1036D0002D3080F8AE3080F85A30704790F82D3099
:1036E00080F85A30704710B5342104461FF078FF37
:1036F000204610BD10B5782104461FF071FF20460A
:1037000010BD10B5C82104461FF06AFF204610BD49
:1037100010B5102104461FF063FF204610BD10B500
:103720004FF4157104461FF05BFF204610BD10B525
:103730000446006B50B10368DB68984730B1206BDA
:10374000036821469B68BDE81040184710BD0B79FF
:1037500070B590F82C6004460D460BB916B170BDDB
:10376000002EFCD0B3FA83F35B0984F82C30236875
:103770002046D3F88C309847236820465B699847E9
:10378000002EECD02B79012BE9D123682046D3F809
:103790008830BDE87040184738B500F1B40399424D
:1037A00004460D4603D10DF0CFFAFFF723FB04F5D5
:1037B000BE74A54205D10DF0C7FABDE83840FFF749
:1037C00009BB38BD074A02600022C0E90122C0E9F6
:1037D0000322C0E90522C0E907224FF480728284E7
:1037E000704700BF907A020870B5036804461B6BEF
:1037F000154698472368294620465B6BBDE8704014
:10380000184770B5036804469B6B154698472368B4
:1038100029462046DB6BBDE87040184710B52622CC
:103820000446002121F03BF82046FFF7CBFF044B74
:103830002360FF2384F826300023A362204610BDB6
:10384000F078020810B526220446002121F027F85E
:103850002046FFF7B7FF0A4B23600A4BA3624FF6DF
:10386000FF73A3854FF47F020023C4E90C32238742
:103870004FF0FF32C4E91023E363204610BD00BFC0
:10388000607802084C5E020870B50446FFF79AFFA4
:103890004FF47F432646A3850123002584F8243076
:1038A000144BA562256346F8343B3046FFF7B6FF5C
:1038B000114B63632A4629463046C4E91A55C4E9C8
:1038C0001C552566A4F86450FFF78EFF314620464C
:1038D000264607F0DDFA094B46F8783B3046FFF7FD
:1038E000B1FF2046C4E93055314607F0D1FA2046F1
:1038F00070BD00BFA8660208587902084467020834
:1039000038B5044600F1780528460AF01BFCB4F9E6
:103910000A20B4F908102846FFF773FF38BD0000ED
:103920002DE9F04F04468BB0A24600250FF076F843
:103930006C4BE5634AF8403B04F16C07504604F1D8
:10394000B408FFF76BFF384604F5BE76FFF77AFF41
:103950004046FFF799FF3046FFF796FF624BDFF8CE
:10396000A4B1C4E99134614BC4E993354FF4A07319
:103970002A46009329465046F023FFF79FF904F1A9
:1039800004094FF07F43A3665146484607F080FA8A
:10399000522238460C21FFF727FF0DF1100A544B35
:1039A000C4F89C3039465046A4F8A0500AF030F9CB
:1039B0009AE8070004F1A80383E80700172308A981
:1039C0003846ADF82430CDF820B00AF0BBFB3946BC
:1039D00048462B2707F05CFA2A46294604F1E800FE
:1039E00000979823FFF76AF9424A434B4349A4F8EA
:1039F0001851C4E94732424BC4E94931D4F8B430D4
:103A00004046D3F88C30984708A816230146404614
:103A1000ADF824304FF0FF3ACDF820B0FFF770FF3B
:103A200098230822032104F596700097FFF746F9C2
:103A30004046C4E95DAAFFF71FFE04F51170C4F803
:103A4000E40003909823A622404600972A21FFF71E
:103A500035F94146484607F01BFA2A46294604F53F
:103A6000D87000979823FFF729F9224A224B23495F
:103A7000C4F8F011C4E97932A3F54C53333BC4F8D0
:103A8000EC31D4F87C31A4F8E0513046D3F88C30D6
:103A90009847152308A93046ADF82430CDF820B05A
:103AA000FFF72EFF98230822032104F5FA700097F0
:103AB000FFF704F93046C4E98FAAFFF7DDFD039B49
:103AC000C4F8AC31EA229823304600972A21FFF748
:103AD000F5F84846314607F0DBF920460BB0BDE863
:103AE000F08F00BFF8670208E06702089937000806
:103AF000FF2F05FFCC9900FF996600FF996633FF01
:103B0000DB9146FF4C5E020830B50368018185B049
:103B10006D460146D3F8843004462846984795E818
:103B200007003C3484E8070005B030BD30B50368B9
:103B3000418185B06D460146D3F88430044628465D
:103B4000984795E807003C3484E8070005B030BD8D
:103B50000022028042808280C280704780F8361046
:103B6000704770B5036804461B6B15469847236879
:103B7000294620465B6EBDE870401847002070471C
:103B8000806C704770477047704770477047704748
:103B90007047704730B4C26844685510034604EB60
:103BA0006200D20748BF62599B6830BC48BFD358F7
:103BB00018470346406830B19A681AB9D86800F0CF
:103BC000010070470120704790F82D3080F8603078
:103BD000704790F82D3080F8A43080F85A30704744
:103BE00010B54C2104461FF0FBFC204610BD10B55B
:103BF000642104461FF0F4FC204610BD10B5A82136
:103C000004461FF0EDFC204610BD10B510210446FF
:103C10001FF0E6FC204610BD10B54FF48B61044642
:103C20001FF0DEFC204610BD0146383091F82C30E4
:103C300013B136310AF08CBC3431FBE710B50446C1
:103C40007C3094F82C303BB104F17A010AF080FC0E
:103C50002046FFF7FEFC10BD04F17801F6E708B539
:103C6000FEF71CFD08BD0000036870B55E6B124BCB
:103C70001B6804468DB22BB9104B114A6C211148B8
:103C800020F0F4FB1049828D0988914203D80F4B34
:103C90000B4A6D21F3E713F812200D4B1B6853F804
:103CA000220003681B6B9847291A3346204609B245
:103CB000BDE87040184700BF582D01202468020855
:103CC00066680208A16802085C2D0120E868020805
:103CD000602D012000F56F73994270B504460D46C2
:103CE00003D10DF031F8FFF755F804F5B0739D429C
:103CF00003D123682046DB6A984704F1B8039D424C
:103D000005D1236820461B6BBDE87040184770BD85
:103D100000224FF0FF31C0E90021826070470B881C
:103D20002DE9F041A0F878301388B0F90850A0F8D8
:103D30007A3004461046904610F00AFCB4F90A3076
:103D4000074603EBD3734046C3F34F0610F034FC31
:103D500005EBD575C5F34F0500EBD07007EBD777B2
:103D6000A6EB6002A5EB670104F17C0012B209B278
:103D7000FFF73AFD23682046D3F88C30BDE8F041C8
:103D800018470B882DE9F04183861388B0F9085055
:103D9000C38604461046904610F0DAFBB4F90A30A8
:103DA000074603EBD3734046C3F34F0610F004FC01
:103DB00005EBD575C5F34F0500EBD07007EBD77752
:103DC000A6EB6002A5EB670104F1380012B209B25C
:103DD000FFF70AFD23682046D3F88C30BDE8F04198
:103DE000184700000022C0E90122C0E90322C0E90F
:103DF0000522C0E907224FF480728284014A0260E2
:103E0000704700BF7C690208094A02600022C0E9CD
:103E10000122C0E90322C0E90522C0E9072282622B
:103E20004FF47F41026340F2011281858284704722
:103E3000746A020838B5262204460D46002120F097
:103E40002EFD2046FFF7CEFF064B23602B88E38430
:103E5000FF23204684F8283029460AF079FB2046C3
:103E600038BD00BFC079020837B5044634220021AE
:103E700020F015FD25462046FFF7C6FF174B45F8F5
:103E8000343B2846FFF7CAFC0022154B2266114638
:103E9000C4E91A22C4E91C22A4F8642063632846FA
:103EA000FFF7A2FC2946204606F0F2FF0D4B2360E7
:103EB00004F17C054FF6FF73A4F87830A4F87A304B
:103EC00001A92846ADF80430FFF7B4FF2046294683
:103ED00006F0DEFF204603B030BD00BFA866020832
:103EE00058790208106B02082DE9F04F044695B08E
:103EF000254600260EF092FD544BE66345F8403B04
:103F000004F16C092846FFF789FC4846FFF79AFC44
:103F10004F4FE76604F1B8031846C4F8B460049341
:103F2000FFF7A2FF04F5B07318460593FFF79CFF57
:103F300004F5027318460393FFF784FC04F5157328
:103F4000C4F808721846C4F850620693FFF77AFC6A
:103F500004F5277318460793FFF774FC04F53973CB
:103F600018460893FFF76EFC04F54B731846099347
:103F7000FFF768FC04F55D73184604F56F7A0A9341
:103F8000FFF760FC34223146504620F088FC504652
:103F9000FFF73AFF2F4BC4F8BC3304F57D774FF69B
:103FA000FF73A4F8F033A4F8F23312A93846ADF841
:103FB0004830FFF73FFF3946504606F069FF264B71
:103FC000C4F84834254BC4F850344FF4A07332463B
:103FD0002846C4F84C44C4F8546431460093F02396
:103FE000FEF76CFE271D4FF07F43A3662946384637
:103FF00006F04EFFA52266214846FFF7F5FBE36E6B
:10400000A4F8A0600CAD4FF0FF3BD3F88430C4F8A7
:104010009CB049462846984795E8070004F1A80354
:1040200083E807000E4B1B6804F584682BB90D4B21
:104030000D4A60210D4820F019FA0D4B1B88032B07
:104040001AD80C4B084A6121F4E700BF686C0208DB
:10405000E4690208B06B0208506C0208D53C000805
:10406000582D01202468020826690208A168020868
:104070005C2D0120E8680208C74B0321186800F096
:1040800081FFC64A03460A21404610F0A7F9484678
:10409000C4F8B4800AF036F8DFF82083CDF8488001
:1040A0000523484612A9ADF84C300AF04BF84946B2
:1040B00038464FF0320906F0EBFE4B46CDF8009043
:1040C0003246314604F1EC00FEF7F8FDB44AB5493A
:1040D000D4F8B8300498D3F88C30A4F81C61C4E943
:1040E0004A21C4E948BB984712A8024611A80323F5
:1040F00001460498ADF84430ADF84830FFF70FFEA4
:1041000004F58960C4F8E8000B902C202D23A3222D
:10411000C4F83861142100900498FEF7CFFD04998B
:10412000384606F0B5FE4B46CDF800903246314693
:1041300004F5CA70FEF7C2FD994A9A49D4F8603175
:104140000598D3F88C30A4F8C461C4E97421C4E99B
:1041500072BB984704230598ADF8443012AA11A900
:10416000ADF84830FFF7DBFD0B9AC4F890212C2204
:104170002D230598C4F8E061B1210092A322FEF737
:104180009DFD0599384606F083FE7122039878213B
:10419000FFF72AFBD4F808320399D3F88430C4F827
:1041A00038B22846A4F83C62984795E8070004F521
:1041B000117383E807007C4A136804F23449002B2A
:1041C0003FF435AF794A1388022B7FF63AAF724B32
:1041D0000221186800F0D6FE704A03460A214846BC
:1041E00010F0FCF80398C4F8509209F08BFF0923F3
:1041F0000398ADF84C3012A9CDF8488009F0A2FF21
:104200000399384606F044FE069844222C21FFF715
:10421000EBFA0699C4F884B22846A4F8886209F03B
:10422000F7FC95E8070004F5247383E807000A23E8
:104230000698ADF84C3012A9CDF8488009F082FFFD
:104240000699384606F024FE079871222A21FFF7C6
:10425000CBFA0799C4F8CCB22846A4F8D06209F08A
:10426000D7FC95E8070004F5367383E807000B23B5
:104270000798ADF84C3012A9CDF8488009F062FFDC
:104280000799384606F004FE089844227021FFF78B
:10429000ABFA474B0899C4F814332846A4F81863BE
:1042A00009F0B6FC95E8070004F5487383E80700B9
:1042B0004FF00C090898CDF8488012A9ADF84C9041
:1042C00009F040FF089984F80963384606F0E0FDDC
:1042D000099844227021FFF787FA364B0999C4F8F0
:1042E0005C332846A4F8606309F092FC95E8070067
:1042F00004F55A7383E807000D230998ADF84C3094
:1043000012A9CDF8488009F01DFF099984F851637E
:10431000384606F0BDFD4A460A982921FFF764FA9F
:10432000254B0A99C4F8A4332846A4F8A86309F0D9
:104330006FFC95E8070004F56C7383E8070014230D
:104340000A98ADF84C3012A9CDF8488009F0FAFE71
:104350000A99384606F09CFD022312AA11A950467C
:10436000ADF84430ADF84830FFF70BFD0B9BC4F8B7
:10437000EC332023C4F8F8634FF48D720093504659
:10438000CC21FEF79BFC3846514606F081FD2046C5
:1043900015B0BDE8F08F00BF642D012071690208DF
:1043A000663300FF996633FF582D01205C2D0120F4
:1043B00021C465FF2121C2FFFF2F05FF4C5E0208CB
:1043C000704770477047704770477047704730B408
:1043D000C26844685510034604EB6200D20748BF28
:1043E00062599B6830BC48BFD358184703464068A1
:1043F00030B19A681AB9D86800F0010070470120FE
:10440000704730B4C26844685510034604EB62003C
:10441000D20748BF62599B6830BC48BFD358184781
:104420000346406830B19A681AB9D86800F00100B4
:1044300070470120704710B5102104461FF0D0F8D6
:10444000204610BD10B5102104461FF0C9F82046C3
:1044500010BD10B54FF4C56104461FF0C1F82046E9
:1044600010BD00F2FC428A4202D10368DB6A1847A1
:10447000704738B500F53A73994204460D4602D1AB
:1044800003681B6B984704F5CA739D4203D12368E8
:1044900020465B6B984704F50F74A54205D10CF0DC
:1044A00053FCBDE83840FEF785BC38BD10B5044666
:1044B000FFF7C8F9024B23600023A364204610BD18
:1044C000E469020810B526220446002120F0E7F92D
:1044D0002046FFF787FC0023A36284F82C300123D9
:1044E00084F824304FF6FF73044A84F83230E385B1
:1044F00023862260A386204610BD00BFEC77020809
:104500002DE9F04F044699B0264600250EF086FAB4
:10451000964BE56346F8403B04F16C0A3046FFF7E2
:104520007DF904F1B80B5046FFF7C0FF04F5807920
:104530005846FFF787F94846FFF784F904F5A47356
:1045400018460393FFF7B2FF04F5CA7318460593A4
:10455000FFF78AFC04F50F733422294618460493AA
:1045600020F09DF90498FFF74FFC814BC4F83C32D2
:1045700004F51D774FF6FF73A4F87032A4F8723279
:1045800016A93846ADF85830FFF754FC3946049860
:1045900006F07EFC04F5287318460693FFF752F9DF
:1045A00004F53A7318460793FFF75EFC04F564734D
:1045B00018460893FFF746F904F5767318460993F1
:1045C000FFF740F904F5846318460A93FFF73AF9B8
:1045D00004F58D6318460B93FFF734F904F59663E1
:1045E00018460C93FFF762FF04F2FC4318460E9343
:1045F000FFF768FF04F2345318460D93FFF756FF98
:1046000004F5B06318460F93FFF75CFF594BC4F8ED
:104610000836594BC4F81036584BC4F81836584B66
:10462000C4F820364FF4A0732A463046C4F80C462E
:10463000C4F81456C4F81C46C4F8245629460093FE
:10464000F023FEF73BFB271D4FF07F43A366314667
:10465000384606F01DFC822250466921FFF7C4F857
:10466000E36EA4F8A05010AE4FF0FF385146D3F8D7
:104670008430C4F89C803046984796E8070004F1DF
:10468000A80383E8070004F5B763C4F8B4305046C4
:10469000A4F8B85509F036FD5146384606F0F8FB47
:1046A000552258462521FFF79FF859463046C4F851
:1046B000E880A4F8EC5009F0ABFA96E8070004F1A2
:1046C000F40383E807005946384606F0E1FBB122BF
:1046D00048462321FFF788F849463046C4F8308120
:1046E000A4F8345109F094FA96E8070004F59E7393
:1046F00083E80700DFF8A0B0CDF858B04FF004030E
:10470000484616A9ADF85C3009F01CFD494638460C
:1047100006F0BEFBE5220398DFF880A06021FFF7DA
:1047200063F8D4F848310399D3F88430C4F8788119
:104730003046A4F87C51984796E8070004F5C27308
:1047400083E80700DAF8003004F2CC592BB90D4B9E
:104750000D4A60210D481FF089FE0D4B1B88072B69
:104760001ED80C4B084A6121F4E700BFD46C020844
:10477000B06B0208A46C020863440008BC6C020819
:10478000734400082468020826690208A168020828
:104790005C2D0120E86802084C5E0208582D0120BB
:1047A000D54B0721186800F0EDFBD44A03460A21D7
:1047B00048460FF013FE0398C4F8909109F0A2FC4C
:1047C00008230398ADF85C3016A94FF03209CDF8F4
:1047D00058B009F0B7FC039984F86D51384606F0DB
:1047E00057FB4B462A46294604F5E470CDF8009065
:1047F000FEF764FAC24AC349D4F894310598D3F855
:104800008C30A4F8F851C4E98121C4E97F88984725
:1048100016A8024615A8032301460598ADF85430A2
:10482000ADF85830FFF77BFA04F5C360C4F8C40153
:1048300003902C202D23E422C4F8145284F8B9519B
:10484000112100900598FEF739FA0599384606F0CF
:104850001FFB16A8024615A8022301460498ADF8CE
:104860005430ADF85830FFF78CFA20230398C4F881
:104870006C024FF48D720498C4F87852CC210093E6
:10488000FEF71CFA0499384606F002FB0722069848
:104890002421FEF7A9FF9C4B0699C4F8D03230467C
:1048A000A4F8D45209F0B4F996E8070004F5377378
:1048B00083E8070016A8132301460698ADF85C307C
:1048C000CDF858B009F03EFC0699384606F0E0FAFB
:1048D0004B462A46294604F54770CDF80090FEF76E
:1048E000EDF9874A8749D4F8E8320798D3F88C3035
:1048F000A4F84C53C4E9D621C4E9D48898474FF0B2
:1049000004020798ADF85420ADF8582015A916AA4E
:10491000FFF705FA039AC4F818232C222D230798D1
:10492000C4F8685384F80D53AE210092E422FEF7D8
:10493000C5F90799384606F0ABFA552208982521A3
:10494000FEF752FF30460899C4F8C083A4F8C45358
:1049500009F05EF996E8070004F5737383E8070031
:1049600012230898ADF85C3016A9CDF858B009F0BC
:10497000E9FB0899384606F08BFA82220998232130
:10498000FEF732FF30460999C4F80884A4F80C54A5
:1049900009F03EF996E8070004F2144383E80700A3
:1049A0000F230998ADF85C3016A9CDF858B009F07E
:1049B000C9FB0999384606F06BFA55220A98692115
:1049C000FEF712FF514B0A99C4F850343046A4F850
:1049D000545409F01DF996E8070004F25C4383E89B
:1049E000070011230A98ADF85C3016A9CDF858B02D
:1049F00009F0A8FB0A9984F84554384606F048FAAD
:104A000055220B986921FEF7EFFE414B0B99C4F834
:104A100098343046A4F89C5409F0FAF896E8070058
:104A200004F2A44383E8070010230B98ADF85C3030
:104A300016A9CDF858B009F085FB0B9984F88D5470
:104A4000384606F025FA0C9882226921FEF7CCFE42
:104A5000DAF80030C4F8E084A4F8E454C4F8EC5464
:104A6000C4F8F084C4F8F45404F5BC66002B3FF499
:104A70006EAE284A1388062B7FF673AE1E4B0621B6
:104A8000186800F07FFA1D4A03460A2130460FF0ED
:104A9000A5FC0C98C4F8F86409F034FB0E230C98BC
:104AA000ADF85C3016A9CDF858B009F04BFB0C9965
:104AB000384606F0EDF90E98A4228C21FEF794FEFC
:104AC00016A90A460E98A4F8305515A90126ADF886
:104AD0005460ADF8585009F08FFB04F5C163C4F879
:104AE00024350E99384606F0D3F90D9831224C2121
:104AF000FEF77AFE10E000BF642D01207169020804
:104B0000663300FF996633FFFF2F05FF21C465FF61
:104B10002121C2FF5C2D0120DAF80030C4F8648541
:104B2000C4F87485A4F86855C4F87055C4F878556D
:104B300004F2F458002B3FF40AAE1D4A1388002BF0
:104B40003FF40FAE1B4B2946186800F01BFA1A4AB7
:104B500003460A2140460FF041FC0D98C4F87C85BD
:104B600009F0D0FA0D98CDF858B016A9ADF85C60F0
:104B700009F0E8FA0D99384606F08AF90F98E22212
:104B80008C21FEF731FE0F98A4F8B45516AA15A98A
:104B9000ADF85460ADF8585009F02EFB38460F9927
:104BA00084F8A55506F074F9204619B0BDE8F08FD9
:104BB0005C2D0120642D01207169020870470000FE
:104BC00030B5164D2C68BFF35B8F14F001048FB025
:104BD00021D128461EF006FDE8B1114B11491248BB
:104BE0000A94CDE90B433F230993104B0893104BD4
:104BF00005940122CDE906430423CDE903321E23A7
:104C00000093CDE90144FEF7E7FC0A481FF04CFC95
:104C100028461EF0F3FC04480FB030BD581E00209B
:104C20000C6D0208ECA602085C1E0020B8AA02085F
:104C300018AB0208BD4B00087047000030B5164D98
:104C40002C68BFF35B8F14F001048FB020D128468D
:104C50001EF0C8FCE0B13F230993104B0893104BA2
:104C6000104911480A940122CDE906430423CDE9F5
:104C700003320A230093CDE90B44CDE901440594A6
:104C8000FEF7AAFC09481FF00FFC28461EF0B6FCF0
:104C900005480FB030BD00BF881E0020BCAA020826
:104CA0001CAB0208FCA602088C1E0020394C000830
:104CB0007047000030B5174D2C68BFF35B8F14F0C0
:104CC00001048FB022D128461EF08CFCF0B13F23A6
:104CD0000993114B0893114B07930123CDE9054329
:104CE00004930423CDE9024314230D4900932422A5
:104CF0001823CDE90B440B480A940194FEF76CFC91
:104D000009481FF0D1FB28461EF078FC05480FB07B
:104D100030BD00BFB81E0020C0AA020820AB0208A8
:104D20000CA70208BC1E0020B14C00087047000010
:104D300030B5164D2C68BFF35B8F14F001048FB0B3
:104D400021D128461EF04EFCE8B13F230993104BB9
:104D50000893104B104911480A94CDE906430122EB
:104D60000423CDE903321E2300931422CDE90B4422
:104D7000CDE901440594FEF72FFC09481FF094FB90
:104D800028461EF03BFC05480FB030BDE81E002051
:104D9000F8AA020824AB020804A90208EC1E0020AD
:104DA0002D4D00087047000030B5174D2C68BFF33B
:104DB0005B8F14F001048FB022D128461EF012FC44
:104DC000F0B13F230993114B0893114B114912483D
:104DD0000A94CDE9064301220423CDE903322823B6
:104DE00000930B222923CDE90B44CDE9014405941E
:104DF000FEF7F2FB09481FF057FB28461EF0FEFBAA
:104E000005480FB030BD00BF181F002014AB0208CA
:104E100028AB02081CAA02081C1F0020A54D000890
:104E200000207047002070470EB403B503AB00218B
:104E300053F8042B01930CF0FBFE02B05DF804EB79
:104E400003B070470CB407B504AB53F8042B0193BF
:104E50000CF0EEFE03B05DF804EB02B0704700000A
:104E6000436C10B5044673B3038F2BB9184B194A22
:104E7000C52119481FF0FAFAC38E00EB43035B8C7F
:104E80000BB30EF002FD238F012B03D8134B144AF2
:104E9000CB21EEE7E28E531C9BB2092B194688BF4B
:104EA000A3F10A0104EB410140F63F10498C814215
:104EB00009D10A2B04EB420228BF002304EB430371
:104EC000508C588451842046BDE810400EF0E0BB61
:104ED000627102086B7102081672020860720208A1
:104EE0006E7202080EF09BBB10B586B002AC84E86F
:104EF00006001A460AAB05930193099B00932146CD
:104F0000089B0BF0BFFA06B010BD000038B518BB07
:104F1000124B13481C681349B4B122682244026042
:104F2000626822440A60A26814440F4B00221A806F
:104F300000F038F8054600F033F80C4B1C600C4BC1
:104F40001D600C4B188007E00B4B03600B4B0B6094
:104F50000B4B1C68002CE8D138BD00BF541F00204B
:104F60004C1F0020481F0020501F0020582D0120FA
:104F7000602D01205C2D01208CAB02082CAB0208B7
:104F800088AC0208044B1B6853F82100034B1B68D4
:104F900003EB4000704700BF481F00204C1F00205B
:104FA0001820704700487047581F002010B5FFF7C1
:104FB00081FE074C2060FFF7BBFE6060FFF73EFEFE
:104FC000A060FFF7FDFDE060FFF7EEFE206110BD81
:104FD000581F002010B5002404600C6014601C6091
:104FE00010BD704710B54FF4AE7104461EF0F8FACC
:104FF000204610BD10B50446D0F8580100F013F853
:105000002046BDE810400BF049BF000010B5044633
:10501000FDF77CFE014B2360204610BD487302085B
:10502000002202607047704770470438704770472D
:1050300010B5102104461EF0D3FA204610BDA0F191
:105040000400F5E700228260024A026018324260E2
:10505000C16070479C7302087047000010B5034B95
:1050600003600446FEF7F2FA204610BDC47302083E
:1050700010B50446FFF7F2FF20464FF415711EF0FD
:10508000AFFA204610BD000010B50446FEF748FCFC
:10509000014B2360204610BDC4730208FEF7D7BA47
:1050A000704704387047704710B5102104461EF051
:1050B00097FA204610BDA0F10400F5E700228260B7
:1050C000024A026018324260C1607047F8730208F9
:1050D0007047000010B5034B03600446FEF754FD13
:1050E000204610BD2474020810B50446FFF7F2FFF5
:1050F00020464FF48B611EF073FA204610BD00006D
:1051000010B50446FEF7F0FE014B2360204610BDAB
:105110002474020810B5074B074A1B6804460A218D
:1051200000F584600FF05AF904F16C00BDE81040FE
:105130000CF0A8BEB803002018740208044A1368D3
:1051400013F11D0FA4BF01331360FFF7E3BF00BFCE
:10515000B8030020044A1368312BDCBF03F1FF338E
:105160001360FFF7D7BF00BFB803002037B5154D58
:105170000446FEF70AFD286803F024FF034660B1E9
:1051800000231A4628680DF1070103F0EBFE9DF895
:105190000730A3F14602534253410B4A84F80933C6
:1051A000137083F0010384F8513304F539700CF067
:1051B00069FE04F54B700CF065FE2046FFF7AAFF70
:1051C00003B030BD080400206C1F002037B52A4D05
:1051D0000446286803F0F6FE00283AD04FF0FF336B
:1051E000286800220DF1060103F0BCFE9DF8063090
:1051F000322B2ED8214A224D0A2104F234400FF0DE
:10520000EDF804F502700CF03DFE1E4B2A789DF877
:1052100006101B68FAB901338B420BDA1A48462391
:105220008DF8073000680A230DF1070103F069FECD
:1052300001232B702B7884F8093383F0010304F5E4
:10524000397084F851330CF01DFE04F54B700CF0EE
:1052500019FE03B030BD013B8B42EBDD0A486623EB
:105260008DF8073000680A2300220DF1070103F0D2
:1052700048FE0023DDE700BF100400201874020878
:105280006C1F0020B8030020080400207047043879
:105290007047704710B5102104461EF0A1F9204652
:1052A00010BDA0F10400F5E700228260024A02600E
:1052B00018324260C1607047607402087047000095
:1052C00010B5034B03600446FFF77DF8204610BD80
:1052D0005C75020810B50446FFF7F2FF20464FF454
:1052E000C5611EF07DF9204610BD000008B5054BD4
:1052F0001B682BB9044B054A054894211FF0B6F8EA
:10530000008808BD902D012080740208BC7402083A
:10531000EF74020810B50446FFF7F2F8014B236062
:10532000204610BD5C750208064B1A68064B1B68C8
:105330003C214B434FF4616101FB0233034A13608C
:10534000704700BF1800002014000020701F0020CC
:1053500010B5074B074A1B6804460A2100F2CC50DF
:105360000FF03CF804F5A470BDE810400CF08ABDC5
:10537000B403002018740208044A1368B3F5967F3A
:10538000BCBF01331360FFF7E3BF00BFB4030020CD
:10539000044A1368002BA4BF03F1FF331360FFF727
:1053A000D7BF00BFB403002013B50B4B0B4A1B68DB
:1053B00001930B4B1B6800930A4B04461B680A21A0
:1053C00000F2F4500FF00AF804F2345002B0BDE8D5
:1053D00010400CF057BD00BF741F00203375020849
:1053E000140000201800002010B5044680F80D13AA
:1053F00080F8B91180F86D1100F53A700CF042FD9B
:1054000004F5CA700CF03EFD04F5A470BDE8104030
:105410000CF038BD10B5064C2168003918BF0121C9
:10542000FFF7E2FF2368B3FA83F35B09236010BD43
:10543000B003002070B504460D4DFEF7C5FF2046B1
:10544000FFF786FF296804F2FC46003918BF0121E6
:10545000304608F0ECFA30460CF014FD2968B1FA39
:1054600081F120464909BDE87040FFF7BDBF00BF8C
:10547000B00300202DE9F04F624D85B00446286846
:1054800003F0A0FD002800F0928028685E4D4FF0E8
:10549000FF3300220DF10E0103F064FD9DF80E3084
:1054A0005A4A0A2104F5BC600EF098FF04F5966094
:1054B0000CF0E8FC296856481FF09CF92F68554D00
:1054C00004F58D6304F5B06004F53A7B04F5CA7AFF
:1054D00004F5A479012604F584680193002F3BD1DB
:1054E00084F8A56584F80D7384F8B97184F86D713A
:1054F0000CF0C8FC58460CF0C5FC50460CF0C2FC41
:1055000048460CF0BFFC04F2AE50FFF7EFFE8146B8
:1055100004F2B450FFF7EAFE81450ED12A78002A42
:1055200038D13D484C238DF80F3000680A230DF127
:105530000F0103F0E6FC2E702CE02B7853B33648B5
:105540006C238DF80F3000680A233A460DF10F01E5
:1055500003F0D7FC2F701DE0002784F8A57584F8B0
:105560000D6384F8B96184F86D610CF08BFC5846CA
:105570000CF088FC50460CF085FC48460CF082FC90
:10558000264B2A789DF80E101B68002A36D1033B63
:105590008B42C6DC2B7884F8453483F00103404607
:1055A00084F88D340CF06EFC01980CF06BFC03F069
:1055B0006BFB4FF47A73B0FBF3F0194B19491B687E
:1055C0003C221844B0FBF2F302FB13050D60B3FB61
:1055D000F2F102FB1133144A13604FF46163B0FB24
:1055E000F3F01823B0FBF3F203FB12000F4B18602B
:1055F0002046FFF7D9FE05B0BDE8F08F03338B429C
:10560000C8DA9CE70C040020B003002018740208DC
:10561000427502086D1F002008040020B40300201A
:10562000701F0020741F00201400002018000020AC
:10563000F02070474FF4A07070472920FBF7E2BBC1
:105640002820FBF7DFBB08B5FBF7B0FBCA20FBF750
:10565000D9FBC320FBF7BAFB0820FBF7B7FB5020B0
:10566000FBF7B4FBCF20FBF7CDFB0020FBF7AEFB35
:10567000C120FBF7ABFB3020FBF7A8FBED20FBF7CD
:10568000C1FB6420FBF7A2FB0320FBF79FFB12206A
:10569000FBF79CFB8120FBF799FBE820FBF7B2FBB3
:1056A0008520FBF793FB0020FBF790FB7820FBF7AE
:1056B0008DFBCB20FBF7A6FB3920FBF787FB2C20CB
:1056C000FBF784FB0020FBF781FB3420FBF77EFB1C
:1056D0000220FBF77BFBF720FBF794FB2020FBF776
:1056E00075FBEA20FBF78EFB0020FBF76FFB002029
:1056F000FBF76CFBB120FBF785FB0020FBF766FB9B
:105700001B20FBF763FBB620FBF77CFB0A20FBF7B3
:105710005DFBA220FBF75AFBC020FBF773FB1020B8
:10572000FBF754FBC120FBF76DFB1020FBF74EFB92
:10573000C520FBF767FB4520FBF748FB1520FBF76F
:1057400045FBC720FBF75EFB9020FBF73FFB3620B5
:10575000FBF758FBC820FBF739FBF220FBF752FBA5
:105760000020FBF733FBB020FBF74CFBC220FBF71C
:105770002DFBB620FBF746FB0A20FBF727FBA720F3
:10578000FBF724FB2720FBF721FB0420FBF71EFB84
:105790002A20FBF737FB0020FBF718FB0020FBF764
:1057A00015FB0020FBF712FBEF20FBF70FFB2B2074
:1057B000FBF728FB0020FBF709FB0020FBF706FBAB
:1057C0000120FBF703FB3F20FBF700FBF620FBF774
:1057D00019FB0120FBF7FAFA0020FBF7F7FA062085
:1057E000FBF7F4FA2C20FBF70DFBC820FBF758FB66
:1057F0002620FBF707FB0120FBF7E8FAE020FBF788
:1058000001FB0F20FBF7E2FA2920FBF7DFFA242047
:10581000FBF7DCFA0C20FBF7D9FA0E20FBF7D6FADF
:105820000920FBF7D3FA4E20FBF7D0FA7820FBF7DC
:10583000CDFA3C20FBF7CAFA0920FBF7C7FA132080
:10584000FBF7C4FA0520FBF7C1FA1720FBF7BEFAF5
:105850001120FBF7BBFA0020FBF7B8FAE120FBF7B9
:10586000D1FA0020FBF7B2FA1620FBF7AFFA1B20A3
:10587000FBF7ACFA0420FBF7A9FA1120FBF7A6FA14
:105880000720FBF7A3FA3120FBF7A0FA3320FBF740
:105890009DFA4220FBF79AFA0520FBF797FA0C20B5
:1058A000FBF794FA0A20FBF791FA2820FBF78EFA0F
:1058B0002F20FBF78BFA0F20FBF788FA1120FBF75C
:1058C000A1FAC820FBF7ECFA2920FBF79BFABDE808
:1058D00008402C20FBF796BA08B5FBF767FA0321BE
:1058E000D320FBF7ABFA80B208BD10B5C4B20222D8
:1058F00003212046FBF710FA0A20FBF755FA204651
:1059000000220321FBF708FABDE810400220FBF754
:105910004BBA38B50446E4B2FBF7FCF90021204647
:10592000FBF712FA012105462046FBF70DFA40EA83
:10593000052080B238BD10B5C4B240212046FBF727
:1059400003FA030607D54C212046FBF7FDF9003882
:1059500018BF012010BD01224B212046FBF7DCF9C6
:10596000204600224B21FBF7D7F90020F2E773B560
:105970000423C4B20E461546D7210DEB0302204680
:10598000FBF7FCF9019B1BBA1A0DC3F30B23328002
:1059900020462B8001224B21FBF7BEF900224B2130
:1059A0002046FBF7B9F902B070BD000010B50A4AF5
:1059B0001378984204460DD0517888420AD00BB132
:1059C00041B90123D454FBF7A5F92046BDE81040A6
:1059D000FFF78BBF10BD00BF781F002010B5C4B209
:1059E00009212046FBF7B0F940F00102D2B220466F
:1059F0000921BDE81040FBF78FB910B5C4B20921E9
:105A00002046FBF7A1F9092100F0FE022046BDE87F
:105A10001040FBF781B938B5C4B20D4620460A21C3
:105A2000FBF792F940EA0502D2B220460A21BDE80E
:105A30003840FBF771B910B50446FBF76CF9204606
:105A40001F21FFF7E8FF2046BDE81040FFF7C6BF63
:105A500038B5C4B20D4620460A21FBF775F920EA95
:105A60000502D2B220460A21BDE83840FBF754B9FE
:105A700010B50446FFF7C1FF20461F21BDE81040C6
:105A8000FFF7E6BF10B5C0B20C460B21FBF75CF97F
:105A9000204010BD1F21FFF7F5BF0A46C0B20B2101
:105AA000FBF73AB91F21FFF7F8BF38B5C4B20D466E
:105AB00020461721FBF748F920EA0502D2B220461A
:105AC0001721BDE83840FBF727B970B5C4B20646C8
:105AD00004212046FBF738F9042100F0FB020546BB
