:020000040800F2
:1000000000000320210600088D1600088F16000846
:1000100091160008931600089516000800000000CD
:1000200000000000000000000000000081870008C0
:10003000971600080000000011880008758000086D
:1000400071060008710600087106000871060008B4
:1000500071060008710600087106000871060008A4
:100060007106000871060008710600087106000894
:100070007106000871060008710600087106000884
:100080007106000871060008710600087106000874
:100090007106000871060008710600087106000864
:1000A0007106000871060008710600087106000854
:1000B0007106000871060008710600087106000844
:1000C0007106000871060008710600087106000834
:1000D0007106000871060008710600087106000824
:1000E0007106000871060008710600087106000814
:1000F0007106000871060008710600087106000804
:1001000071060008710600087106000871060008F3
:1001100071060008710600089916000871060008AB
:1001200071060008710600087106000871060008D3
:1001300071060008710600087106000871060008C3
:1001400071060008710600087106000871060008B3
:1001500071060008710600087106000871060008A3
:100160007106000871060008710600087106000893
:100170007106000871060008710600080000000002
:100180007106000871060008710600087106000873
:100190007106000871060008710600087106000863
:0C01A000A516000871060008B116000842
:1001B00010B5054C237833B9044B13B10448AFF3A1
:1001C00000800123237010BD800300200000000088
:1001D0000C49020808B5034B1BB103490348AFF3B0
:1001E000008008BD00000000840300200C490208C4
:1001F00001F0FF01102A2BDB10F0070F08D010F8D8
:10020000013B013A8B422DD010F0070F42B3F6D1DB
:10021000F0B441EA012141EA014122F007047FF0F4
:1002200000070023F0E80256083C85EA010586EA4B
:10023000010685FA47F5A3FA87F586FA47F6A5FA87
:1002400087F68EB9EED1F0BC01F0FF0102F0070293
:1002500032B110F8013B013A83EA010313B1F8D13E
:100260000020704701387047002D06BF354603381F
:10027000073815F0010F07D1013015F4807F02BF58
:10028000013015F4C03F0130F0BC0138704700BFA9
:100290007BB972B90029BEBF00204FF0004106E0D3
:1002A00008BF00281CBF6FF000414FF0FF3000F086
:1002B000B5B9ADF1080C6DE904CE002909DB002BBE
:1002C0001ADB00F04DF8DDF804E0DDE9022304B0AC
:1002D0007047404261EB4101002B1BDB00F040F80E
:1002E000DDF804E0DDE9022304B0404261EB4101A6
:1002F000524263EB43037047524263EB430300F007
:100300002FF8DDF804E0DDE9022304B0404261EBA0
:1003100041017047524263EB430300F021F8DDF8DE
:1003200004E0DDE9022304B0524263EB430370476B
:1003300053B94AB9002908BF00281CBF4FF0FF314C
:100340004FF0FF3000F06AB9ADF1080C6DE904CE52
:1003500000F006F8DDF804E0DDE9022304B07047A0
:100360002DE9F047089D0C46002B4ED194468C4554
:100370008646B2FA82F262D94AB1C2F120039140B4
:1003800020FA03F30CFA02FC194300FA02FE4FEACA
:100390001C471FFA8CF6B1FBF7F44FEA1E4307FB2C
:1003A000141143EA014304FB06F199420AD91CEBFC
:1003B000030304F1FF3080F01281994240F20F8173
:1003C000023C6344591A1FFA8EF3B1FBF7F007FBA6
:1003D000101143EA014300FB06F69E420AD91CEBCA
:1003E000030300F1FF3180F0FC809E4240F2F9806F
:1003F000634402389B1B40EA044000211DB1D340F6
:100400000022C5E90032BDE8F0878B4205D90DB165
:10041000C5E9000100210846F5E7B3FA83F1002998
:1004200046D1A34202D39042C0F0F080861A64EB1A
:1004300003030120002DE6D0C5E90063E3E7002AAD
:1004400040F09080A1EB0C044FEA1C481FFA8CF797
:100450000121B4FBF8F64FEA1E4308FB164443EAB9
:10046000044307FB06F0984208D91CEB030306F18E
:10047000FF3402D2984200F2CD8026461C1A1FFAA1
:100480008EF3B4FBF8F008FB104443EA044300FB8E
:1004900007F79F4208D91CEB030300F1FF3402D297
:1004A0009F4200F2B0802046DB1B40EA0640A5E7F1
:1004B000C1F120068B4022FA06F71F4320FA06FC02
:1004C00004FA01F343EA0C03F44000FA01F8380C93
:1004D0004FEA1349B4FBF0FE1FFA87FC00FB1E44F1
:1004E00049EA04440EFB0CF9A14502FA01F20AD9CB
:1004F0003C190EF1FF3A80F08480A14540F28180E2
:10050000AEF1020E3C44A4EB09041FFA83F9B4FBDC
:10051000F0F300FB134449EA044403FB0CFCA4453C
:1005200007D93C1903F1FF3067D2A44565D9023BD6
:100530003C4443EA0E40A0FB0293A4EB0C049C4213
:10054000CE469C4651D34ED055B1B8EB0E0364EB6A
:100550000C0404FA06F6CB401E43CC40C5E9006407
:10056000002150E7C2F1200320FA03F10CFA02FC4B
:1005700024FA03F394400C434FEA1C4800FA02FEAD
:100580001FFA8CF7B3FBF8F008FB1031230C43EA99
:10059000014300FB07F1994208D91CEB030300F16A
:1005A000FF362CD299422AD9023863445B1AA4B28E
:1005B000B3FBF8F108FB113344EA034401FB07F3F2
:1005C000A34208D91CEB040401F1FF3613D2A34265
:1005D00011D902396444E41A41EA004139E704467A
:1005E000F0E6084606E7C845AED2B9EB020E63EB6B
:1005F000070C0138A8E73146EDE7034699E7304696
:10060000D4E7D6467FE7634402384DE706462346E3
:1006100008460FE7023E634430E700BF704700BF63
:10062000DFF834D0002103E00C4B5B584350043119
:100630000B480C4B42189A42F6D30B4A02E00023B7
:1006400042F8043B094B9A42F9D304F0DFFF23F050
:10065000EDFB00F093F8704700000320087E0308CC
:10066000000000207801002080030020683901206C
:10067000FEE7000007B5064BADF806001B6805480D
:1006800001220DF1060107F05DF803B05DF804FBEF
:10069000040000203804002010B5074C0122204639
:1006A000082105F049FA20460122BDE810404FF428
:1006B000005105F041BA00BF0018024008B50648D5
:1006C0000122042105F038FABDE808400348012260
:1006D0004FF4804105F030BA000402400018024097
:1006E00030B595B0102200210AA823F0F6FA1422A2
:1006F000002103A823F0F1FA00241E4B01941A6C88
:1007000042F080521A641B6C03F080530193019BEA
:10071000194B02941A6842F440421A601B6803F4B1
:10072000404302930122029B4FF48033CDE908231A
:1007300002254FF480030821CDE90E534FF4B47322
:10074000CDE9101308A804231393129506F0B2FA0A
:1007500006F076FA0F23CDE903354FF4A0504FF49D
:100760008053CDE90603052103A8059406F07EFC1D
:1007700015B030BD003802400070004080B59AB01E
:1007800004F052FFFFF7ACFF142200210DA8002453
:1007900023F0A3FAC64B00941A6BC648C64E42F02B
:1007A00010021A631A6B02F010020092009A019470
:1007B0001A6B42F020021A631A6B02F020020192B7
:1007C000019A02941A6B42F080021A631A6B02F0CB
:1007D00080020292029A03941A6B42F004021A6396
:1007E0001A6B02F004020392039A04941A6B42F00B
:1007F00001021A631A6B02F001020492049A059432
:100800001A6B42F002021A631A6B02F0020205929E
:10081000059A06941A6B42F040021A631A6B02F0B2
:1008200040020692069A07941A6B42F008021A6375
:100830001B6B03F00803079322463C21079B05F03E
:100840007BF99E482246042105F076F922469C4811
:100850004FF4405105F070F901253C234FF0030996
:100860009448CDF840900DA902274FF0040ACDE935
:100870000D350F9405F076F890480F940DA94FF0C0
:100880000808CDE90DA5109705F06CF88D480DA965
:10089000CDE90D85CDE90F4405F064F88A480DA92E
:1008A000CDE90DA5CDE90F4405F05CF84FF44053B8
:1008B00083480DA9CDE90D35CDE90F4705F052F874
:1008C0000DA94FF4C0437F48CDE90D35CDE90F4761
:1008D00005F048F87D487E4B036004F037FF7D4A01
:1008E0007D4B3462C6E9002330464FF48043C6E9AD
:1008F0000434C6E90244C6E9064405F02BFB102186
:10090000304605F0C3FF2146304605F0DEFF734850
:10091000734984624FF48273C0E900134FF4007688
:100920001823C0E906630A236E4EC362C0E902447D
:10093000C0E90444C0E9084406F0A8FE6A4B0D97DC
:100940004FF0100CC6E900354023C6E904C34FF44C
:10095000C073C6E906344FF40063C6E908344FF4A7
:100960000053B3620DA907233046CDE90E3ACDE915
:100970001039C6E9024ACDE9127706F06BFD4FF651
:10098000FF7209A93046CDE90958CDE90B54089406
:1009900006F080FD284604F073FE4FF6FF7209A9A9
:1009A0003046CDE90978CDE90B5406F073FD4FF6DA
:1009B000FF7209A93046CDE90998CDE90BA406F0EC
:1009C00069FD4FF40C730893089B0C934FF6FF726C
:1009D00009A93046CDE909A80B9506F05BFD40F268
:1009E0006A51304606F074FD342221460DEB0200B8
:1009F00023F073F93D4E3E4B3461C6E900340923C0
:100A0000C6E905351D2340F20D1EC6E9073940F23F
:100A10004313C6E909E3304640F2471340F2171981
:100A2000C6E90B93C6E90244B48686F8364005F061
:100A3000F1FFFF21F022CDE912144FF4806A052165
:100A40004FF4A073CDE90E24CDE914A1CDE91642EF
:100A50000DA922463046CDE91037264E18930D9445
:100A6000ADF864408DF8664006F09FF8224B336085
:100A70001B6898473368214EDB689847204B304607
:100A8000C6E90034C6E90274C6E90A47C6E90C445F
:100A900004F06CFE2946304604F020FF194E00F0A9
:100AA00060FE00F05DFE184AB46059232EE000BFDE
:100AB00000380240001002403805002000080240C3
:100AC000000C02400018024000040240CC05002047
:100AD00000300240005C0040801A0600380400200C
:100AE0000050014004040020400100A090040020B8
:100AF00000680140EC030020280000208C05002045
:100B000000B00240A403002000100040C6E900230A
:100B1000304640F2E733F360CDE90D44B46107F0AD
:100B2000A1F90DA93046CDE90D4407F0C7F907F04A
:100B3000AFFA144A2946404607F0D8FB124B134A35
:100B400018602946404607F0D1FB114B114A186046
:100B50002946404607F0CAFB0F4B104A1860214651
:100B60000F4807F0C8FA0F4B0F4A186021460F488C
:100B700007F0C1FA0E4B186007F09CFA304607F0F8
:100B800033F8FEE7C8490208F8030020B04902081C
:100B9000F403002098490208F0030020044A0208E8
:100BA000AD10000800040020E04902087117000899
:100BB000FC030020704770477FB5094B8DF8172064
:100BC0001B6802930DF117020123009201930A465C
:100BD0000146044805F0BAFC07B05DF804FB00BF0D
:100BE00008000020380500207FB500238DF817305D
:100BF000084B1B6802930A4601230DF1170100916F
:100C000001930146044805F031FD9DF8170007B037
:100C10005DF804FB08000020380500201FB5084CD3
:100C200024680092CDE901340A46012301460548B3
:100C300005F01CFD003818BF012004B010BD00BF36
:100C4000080000203805002004F01ABD10B5064C3D
:100C500000222046042104F06FFF20460122BDE857
:100C60001040042104F068BF0008024038B50B4D65
:100C7000044601220A484FF4005104F05DFF0022AF
:100C80000421284604F058FF2046FFF7F3FC2846CD
:100C90000122BDE83840042104F04EBF00080240A4
:100CA000000C024038B50B4D044600220A484FF4B0
:100CB000005104F041FF00220421284604F03CFFCB
:100CC0002046FFF7D7FC28460122BDE83840042122
:100CD00004F032BF00080240000C0240F7B5144E89
:100CE000144F05460C4630460022042104F024FF30
:100CF00000224FF40051384604F01EFF2846FFF74B
:100D0000B9FC0D4B0D481B68224601A906F0C5FE33
:100D1000384601224FF40051019C04F00DFF30468B
:100D20000122042104F008FF204603B0F0BD00BFFB
:100D300000080240000C024004000020380400209B
:100D400004F09EBC034B1B6800225A625A6A82421E
:100D5000FCD37047A40300207FB50023CDE9011226
:100D600005930122022301A9CDE9032304F0FAFD32
:100D700007B05DF804FB000010B50D4C11222046B1
:100D80000421FFF7E9FF00222046042104F0D4FEED
:100D90004FF4FA70FFF7D6FF042120460022FFF738
:100DA000DBFFBDE810404FF4FA70FFF7CBBF00BF88
:100DB0000018024070B5154E04460825134811224C
:100DC0000421FFF7C9FF00221048042104F0B4FEFB
:100DD0000220FFF7B7FF14F0010218BF012204211F
:100DE000304604F0A9FE3C20FFF7ACFF04210022AE
:100DF0003046FFF7B1FF013D0220FFF7A3FF15F0DA
:100E0000FF054FEA5404D9D170BD00BF001802405D
:100E100070B50025154E2C46112204213046FFF7EF
:100E20009BFF00220421304604F086FE0220FFF7DB
:100E300089FF042100223046FFF78EFF0820FFF7CC
:100E400081FF0421304604F071FE012804BFA84050
:100E5000044305F101054FF0780008BFE4B2FFF745
:100E600071FF082DD8D1204670BD00BF0018024088
:100E700038B52DED028BFFF77FFFCC20FFF79AFFEF
:100E800044200024FFF796FFFFF7C2FF0134054618
:100E9000012007F077F9A4B215B9B4F5FA6FF3D1D0
:100EA000FFF76AFFCC20FFF785FFBE20FFF782FF28
:100EB000FFF7AEFF0446FFF7ABFF000280B204432A
:100EC000A4B208EE104ABBEECE8AC82007F05AF949
:100ED000B0EE480ABDEC028B38BD00001FB50723F9
:100EE0008DF80F3007480A2300930DF10F020123FC
:100EF0004621006805F0D6F8003818BF012005B07B
:100F00005DF804FBA003002030B5A0F11F03DBB2A5
:100F1000DF2B85B002D9012005B030BD114B124C3A
:100F200018700A25430900F01F0043F0400340F009
:100F3000600000958DF80C308DF80D0001232068BD
:100F400003AA462105F0AEF80028E4D100952068F8
:100F500001230DF10D02462105F0A4F8003818BF59
:100F60000120D9E79C030020A003002008B5074B0F
:100F70001860FFF7B3FF30B94520FFF7C5FF003811
:100F800018BF012008BD0120FCE700BFA00300201E
:100F90001FB503098DF80F0014D010F00C0F11D1FC
:100FA000094B18700A2309480093006801230DF1CA
:100FB0000F02462105F076F8003818BF012005B071
:100FC0005DF804FB0120FAE79D030020A003002048
:100FD0001FB50A230446194800930068022303AA98
:100FE000462105F039F938BBBDF80C305BBA9BB22D
:100FF00007EE903A124B1B78452BF8EEE77A09D0B2
:1010000007EE103A9FED0F6AB8EE477AC6EE076A10
:1010100067EEA67A0C4B1B78212B01D0112B03D144
:10102000B6EE007A67EE877ADFED086A87EEA67A79
:1010300084ED007A04B010BD0120FBE7A00300207E
:101040009C03002000008A429D0300209A99993F4A
:10105000012808B503D1BDE80840FFF71DBB0648CD
:101060000022082104F068FDBDE808400248002283
:101070004FF4005104F060BD00180240012808B58B
:1010800003D1BDE80840FFF719BB06480022042140
:1010900004F052FDBDE80840034800224FF48041AF
:1010A00004F04ABD000402400018024007B52B4876
:1010B0002B4D2C4E2C4CFFF759FF1120FFF768FFEA
:1010C000FFF7D6FEFCEEC07A002217EE903A0DF143
:1010D00002018DF8023028680A2307F042F901A8BE
:1010E000FFF776FF024668B9DDED017A3068FCEE65
:1010F000E77A0DF1030117EE903A8DF803300A23D9
:1011000007F02FF9206807F08DF908B34FF0FF338F
:10111000206800220DF1030107F054F99DF8033017
:101120004C2B01D1FFF7B8FA9DF803306C2B02D19C
:101130000020FFF78DFF9DF80330462B01D1FFF70C
:10114000BDFA9DF80330662B02D10020FFF796FF11
:101150004FF47A7007F016F8B2E700BF38050020A8
:10116000F8030020F4030020F00300200268034B82
:101170009A4201D104F072BA704700BF00100040DB
:101180007047000082B00E4B00220092596C41F46F
:1011900080415964596C01F4804100910099019299
:1011A000196C41F0805119641B6C03F0805301935A
:1011B000019B0F216FF0010002B004F087BA00BF5D
:1011C000003802400268094B9A4282B00BD10023DA
:1011D0000193074B1A6B42F480521A631B6B03F4A2
:1011E00080530193019B02B0704700BF0030024062
:1011F0000038024007B50F4B02689A4216D1002210
:10120000A3F5F0430192196B41F4000119631B6BC4
:1012100003F40003019305215A20019B04F056FAC0
:101220005A2003B05DF804EB04F082BA03B05DF815
:1012300004FB00BF00B002402DE9F043044689B032
:101240001422002103A822F048FD2268244B9A4270
:1012500043D1244C244800250095236B43F004031C
:101260002363236B03F004030093009B0195236B1E
:1012700043F001032363236B03F001030193019BFC
:101280004FF012094FF400734FF0010803270426B2
:1012900003A9CDE90339CDE90587079604F062FB80
:1012A0004FF480731148079603A9CDE90339CDE9BE
:1012B000058704F057FB0295236C43F40003236475
:1012C000236C03F400030293029B236A43F400039C
:1012D0002362236A23F40003236209B0BDE8F0838C
:1012E000005C00400038024000080240000002405C
:1012F000F0B599B004461422002107A822F0EDFCB5
:1013000030220DEB0200002122F0E7FC22685E4B48
:101310009A4240F0B78008230C93C0231093042313
:1013200012930CA84FF40033159305F067FF08B132
:10133000FFF726FF554B5648002400945A6C42F0A4
:1013400080625A645A6C02F080620092009A0194A2
:101350001A6B42F020021A631A6B02F0200201920B
:10136000019A02941A6B42F001021A631A6B02F09E
:1013700001020292029A03941A6B42F002021A636B
:101380001A6B02F002020392039A04941A6B42F061
:1013900040021A631A6B02F040020492049A059408
:1013A0001A6B42F004021A631A6B02F004020592EF
:1013B000059A06941A6B42F008021A631B6B03F03D
:1013C0000803069302250E26069B0B964FF48063B6
:1013D00007A9CDE90735CDE9094504F0C3FA41F67F
:1013E00058032C480B9607A9CDE907350927CDE905
:1013F000094504F0B7FA032327480B9707A9CDE95D
:101400000735CDE9094504F0ADFA4FF47063224881
:101410000B9607A9CDE90735CDE9094504F0A2FAF5
:101420004FF40C631D480B9607A9CDE90735CDE9AC
:10143000094504F097FAC02319480B9607A9CDE98E
:101440000735CDE9094504F08DFA082315480B96B8
:1014500007A9CDE90735CDE9094504F083FA4FF432
:10146000A0530E480B9707A9CDE90735CDE90945EB
:1014700004F078FA58202246052104F027F9582074
:1014800004F056F919B0F0BD006801400038024080
:101490000014024000000240000402400018024014
:1014A00000080240000C024010B5044688B0142227
:1014B000002103A822F011FC2268144B9A4223D188
:1014C00003F56843002101915A6C114842F48012DF
:1014D0005A645A6C02F480120192019A02911A6BBA
:1014E00042F020021A631B6B03F020030293029B5D
:1014F0004FF4607202230321CDE903230523CDE9D4
:10150000061303A904F02EFA08B010BD00500140E4
:10151000001402402DE9F04186B0002303932B4BC9
:101520001C68002C4FD14FF00108C3F80080284BF5
:1015300000949A6B274842EA08029A639B6B03EA7D
:1015400008030093022703260C25009B01A94FF6F0
:101550003F03CDE90137CDE9046504F003FA1E48E5
:10156000059501A9CDE90187CDE9034604F0FAF913
:1015700048F233131948059501A9CDE90137CDE9A2
:10158000034604F0EFF94FF683731548059501A95A
:10159000CDE90137CDE9034604F0E4F94CF20373D9
:1015A0001048059501A9CDE90137CDE9034604F0BE
:1015B000D9F960230C48059501A9CDE90137CDE99A
:1015C000034604F0CFF906B0BDE8F081D405002051
:1015D0000038024000140240000802400018024097
:1015E00000100240000C02400004024070B588B0B8
:1015F00000230293204B1A6C42F010021A641B6CF9
:1016000003F010030293054601A903A8029B05F00D
:10161000D7FD069B4BBB05F0C3FD184E184B33603E
:1016200040F2E733F360174BB0FBF3F3013B736019
:10163000304600233361B360B36106F013FC044607
:1016400080B9304606F0D0FA044658B9362004F086
:101650006FF80F2D0DD822462946362004F036F8B3
:10166000094B1D60204608B070BD05F099FD400093
:10167000D3E70124F6E700BF00380240D805002078
:101680000010004040420F00900000207047FEE72D
:10169000FEE7FEE7FEE77047014806F0E3BA00BF49
:1016A000D8050020014805F023BA00BF90040020AF
:1016B000014804F089B800BF8C0500200120704764
:1016C00008B522F0ADFB162303604FF0FF3008BDD4
:1016D00008B522F0A5FB16230360FEE770B50D46A2
:1016E00014460E46731B9C4201DC204670BDAFF3CE
:1016F000008006F8010BF5E770B50D4614460E465E
:10170000731B9C4201DC204670BD16F8010BAFF341
:101710000080F5E74FF0FF3070474FF400534B6007
:101720000020704701207047002070470A4A116866
:1017300008B5034609B909491160106869460344B0
:101740008B4206D922F06CFB0C2303604FF0FF3074
:1017500008BD1360FCE700BF2006002068390120A7
:10176000704708B500F0A8FDBDE8084000F02CBDAA
:1017700000F0A4BD704710B50421044621F060F9C3
:10178000204610BD38B50C4B0C4C18800C4B8220F9
:1017900019806368984740F6110398420AD1094DB1
:1017A00023682C60822098472B688220DB6898474A
:1017B000002038BD0120FCE72E060020600000203C
:1017C0002C060020300600204FF4A071F020FFF717
:1017D000D9BF0000F7B5334D2B6804461B69822042
:1017E0009847208000284AD02B680DF106025B69DB
:1017F00001A982209847BDF8063040F674629342F2
:101800003FD9ADF80620BDF80630D21A92B20A2AA6
:101810003DD90B23B2FBF3F2234B1B889A4201D92B
:10182000013B9AB2BDF8043040F6B8318B4230D853
:10183000C3F571630E339BB20F21B3FBF1F31B4968
:1018400009888B4201D901398BB2194E194D306884
:101850002F68834281B28CBF591AC91AB8B2BA42F2
:101860008CBF101A801A89B280B201440529C8BF02
:1018700033603368C8BF2A6063802B68A38003B0DD
:10188000F0BDB32B9CBFB423ADF80630BBE70022FC
:10189000C8E7C3F56D6308339BB20E2BCCD8002389
:1018A000D3E700BF300600202C0600202E060020C3
:1018B000280600202406002037B568460D46144649
:1018C000FFF788FFBDF8000030B1BDF802302B6093
:1018D000BDF804302360012003B030BD032821D8B7
:1018E000DFE800F0020B12190F4B1A68B2FA82F20D
:1018F000520904210D4804F01FB90B4B5A68B2FA83
:1019000082F252090821F5E7074B9A68B2FA82F28F
:1019100052091021EEE7044BDA68B2FA82F252095A
:101920002021E7E7704700BF340600200010024086
:10193000032821D8DFE800F0020B12190F4B1A68B8
:10194000003A18BF012204210D4804F0F5B80B4BF2
:101950005A68003A18BF01220821F5E7074B9A6838
:10196000003A18BF01221021EEE7044BDA68003A72
:1019700018BF01222021E7E7704700BF340600208E
:101980000010024003280DD8DFE800F00206080A24
:101990000421054804F0D5B80821FAE71021F8E73A
:1019A0002021F6E7704700BF0010024008B5032869
:1019B00011D8DFE800F0020A0C0E0421074804F0F9
:1019C000B5F8431E5842584108BD0821F6E71021DA
:1019D000F4E72021F2E70020F3E700BF0010024007
:1019E00070B5084D00240126E0B2FFF7DFFF18B103
:1019F0002B68012B18BF2E600134052C05F104055E
:101A0000F2D170BD34060020012380F8781080F8F0
:101A10007930704700207047034B4164003918BF8C
:101A200001211970704700BF272C0120002070474A
:101A3000836B0BB10846184770474FF6FF7070472D
:101A4000406803689B6918477047704770470000FB
:101A500010B5044600F040FD23680349D3F88C30EC
:101A60002046BDE810401847000000D008B50368C4
:101A70000446D3F880309847236820469B6F9847E8
:101A800000F0ECF8236820461B6F98472920FFF7E9
:101A900009F900F0E3F8236820461B6F9847F8E740
:101AA00010B5044609F04EFC23682046D3F8AC304C
:101AB000BDE81040184700F0F1BC00F0F5BC00F0A4
:101AC00029BD00F0C7BC00F039BD00F041BD00F0F9
:101AD000CBBC08F0A3BE10B57C21044620F0B0FFBB
:101AE000204610BD10B590F8341090F878400C4B9B
:101AF0008C421A7809D03AB90A4A0B4914880888E6
:101B000010800C8001221A7010BD002AFCD0054AFA
:101B100005491488088810800C800022F3E700BF74
:101B2000202C01201C2C01201E2C012070B50D46FC
:101B3000194635B9094B0A4A0A4840F2D22121F028
:101B4000C5FEC0E90F52084B003A18BF01221A70B7
:101B50000368BDE87040D3F88C301847404A02084B
:101B6000784A0208C64A0208262C012008B5094B0B
:101B70001B888B4203D8084B1B88934205D9074B1F
:101B8000074A08489E2121F0A1FE074B1980074B08
:101B90001A8008BD1C2C01201E2C01200B4B0208B2
:101BA0006E4B0208C64A0208222C0120242C012078
:101BB000034690F87A0018B1586803681B68184704
:101BC00070470000012108B50022084606F0E6FA39
:101BD0000A4B186028B90A4B0A4A28210A4821F002
:101BE00075FE00220421012006F080FB074B1860DF
:101BF00018B9074B034A2C21F0E708BD480600201E
:101C00008C4C0208D54C0208044D02084406002002
:101C10004F4D0208024B4FF0FF31186806F008BB29
:101C200048060020014B186806F02EBB480600202D
:101C3000024B0021186806F0FBBA00BF48060020DE
:101C4000FFF7F0BF03480449006800231A4606F076
:101C500088BB00BF440600200C00002013B5084CD0
:101C600000231A4601A9206806F0ACFB20684FF05B
:101C7000FF33002201A906F0A5FB02B010BD00BF92
:101C80004406002003685B6C184701207047036816
:101C90009B6A1847FEE740F2EF307047054B036040
:101CA000054B4FF08062C3F88820BFF34F8FBFF31E
:101CB0006F8F7047EC4E020800E100E010B504465B
:101CC0004FF45A61FFF7EAFF204620F0B9FE2046A4
:101CD00010BD000082B0002301930E4B1A6B42F43A
:101CE00000021A631A6B02F400020192019A1A6947
:101CF00042F400021A611A6922F400021A61064BCA
:101D0000064A1A61064A5A61064B4FF080629A6091
:101D100002B07047003802408C050020751F000893
:101D2000951C000800E100E008B50A2809D8DFE8A2
:101D300000F006100E08080808101010100002200D
:101D400008BD054B054A0648902121F0BFFD002043
:101D5000F6E70120F4E700BF914D0208AC4D020800
:101D6000F74D020838B50C46887FFFF7DDFFA58ADE
:101D7000E28A164B2169586342EA05425A64628B33
:101D8000D963521B1A642568082D0ED19A611A6115
:101D90005862207F0E4A42EA0062DA61E2681A6203
:101DA0000C4A5961D9601A6038BD0022D8611A61A5
:101DB000E1680A0A480902F4784200F4FC60024330
:101DC000C1F3C4010A439A63034AECE700B002403E
:101DD00009000100012302000123030008B50B28BC
:101DE0000BD8DFE800F00612100A0A0A0A080808F1
:101DF0000808022008BD0520FCE7054B054A0648F7
:101E00006F2121F063FD0020F4E70120F2E700BF1D
:101E1000914D0208404E0208F74D02082DE9F041AD
:101E200091F81D800C464046FFF7D8FFA77F054676
:101E30003846FFF7D3FF06463846FFF775FFA18AFD
:101E4000628B444B521A1A649A61228B521A1A619D
:101E5000E28A586342EA01425A6421696268D9639E
:101E6000DA602068802828D0227F0FD8202867D009
:101E7000402865D004281AD0364B45EA026545F45F
:101E80000035B845DD6161D0334A44E0B0F5807F6C
:101E900004D0B0F5007FEFD1304800E0304840EA90
:101EA0000262DA61E2681A625E62596132E045EA12
:101EB000026242F40032DA61F6E7A068021DDA62DB
:101EC000227F45EA026545F40035DD615E625961B5
:101ED000017841B1012921D0224B234A23484FF4F4
:101EE0008D7121F0F3FCDA69418822F47F420139D7
:101EF00022F0100242EA0122DA610121154BDA696F
:101F000042F02002DA61DA699206FCD410229A606B
:101F10000029B9D0164A1A60BDE8F081B2F1FF017C
:101F2000DA69408822F47F4200F1FF3022F010028B
:101F300042EA002242F0100218BF0121DA61DDE717
:101F400045EA0262034B42F40032B4E742F2013246
:101F5000E1E700BF00B002400123010009000200D8
:101F60000A0002008A4E0208A44E0208F74D020839
:101F700001230200024B1B68586803685B6918471D
:101F8000282C012070B5044625460A4B0C3000264B
:101F900060602672667245F8203B6022294609F08F
:101FA00029FB04F55A63EE6024359D42FBD120469F
:101FB00070BD00BFEC4E0208034B1A68D207FCD478
:101FC00023229A60704700BF00B0024070470000B3
:101FD00030B50F4C2568ED07FCD423250904A56016
:101FE00041F001010225FF2B65636164E0630AD0C3
:101FF0000849656241EA0363E361074B226260615D
:10200000E060236030BDE561039BA363034BF8E709
:1020100000B00240090001000100020001000300BD
:1020200030B50E4C2568ED07FCD423251204A560BD
:1020300042F001020225FF2B65636264E063E16008
:1020400008D01B0643F00213E361054B6562606133
:10205000236030BD034BE3610123F9E700B0024088
:1020600001000200020002FF30B50B4C2568ED07AD
:10207000FCD4232512041B06A56043F4003302257B
:1020800042F0010265636264E063E160E361034B77
:1020900065626061236030BD00B002400100020053
:1020A0000120704738207047382303FB01000830B7
:1020B0007047382303FB0100083070470120704748
:1020C0004FF4BE6070474FF4BE6303FB010008305D
:1020D00070474FF4BE6303FB0100083070470120D6
:1020E00070471020704700EB01100830704700EB7C
:1020F000011008307047084600F08CBE10B5034B45
:102100000360044608F0E1F8204610BDA44F020821
:1021100010B50446FFF7F2FF2046402120F090FC66
:10212000204610BD10B5034B0360044608F0CDF8FF
:10213000204610BD704F020810B50446FFF7F2FFAD
:1021400020464FF4BF6120F07BFC204610BD00000C
:1021500010B5034B0360044608F0B7F8204610BDE5
:102160003C4F020810B50446FFF7F2FF2046182145
:1021700020F066FC204610BD10B5084B03600446F5
:1021800000F22460FFF7BAFF04F12C00FFF7CAFF4A
:1021900004F11400FFF7DCFF204610BDD84F020801
:1021A00008B50248FFF7E8FF08BD00BF1C15002076
:1021B00010B50446FFF7E0FF204640F2C47120F05E
:1021C0003FFC204610BD00002DE9F34100F0B8FAB5
:1021D000054600F0B9FA0024014623462846224667
:1021E000009411F0D1FB274B274A1A60204602F0D9
:1021F0006BFC264D264B274A27489A6011F02CFB92
:102200002B68BFF35B8FDB0735D4284620F01AFC20
:1022100088B3224C224B236004F5CD6604F11400F0
:1022200004F12C0804F224676060C4F80880E760B9
:10223000266108F04BF81B4B6361404608F046F8F6
:10224000194BE362384608F041F8184BC4F82436BD
:1022500004F2646002F0C2FC224604F2646130467B
:1022600002F0B2FC304600F0D5FD114821F04CFBE5
:10227000284620F0F3FB0F4802B0BDE8F041FFF71D
:10228000E7BB00BF8C2C0120C806002018150020D9
:10229000E8060020CC060020100000201C150020BD
:1022A000D84F02083C4F0208704F0208A44F0208A2
:1022B000A12100084C060020704700000148FFF7EC
:1022C000D5BB00BF4C06002070B5244E244C254DD4
:1022D000254B23603046FFF755FE284616F05AFC82
:1022E00022480FF0B5F8224B2248DC6000224FF460
:1022F0008071C3E9121220491A86C3E91A121F49D4
:1023000099671F4983F858200B60F02101801D4810
:102310005A6601801C4883F870204FF4A071C3E90D
:102320000422C3E90622C3E90822C3E90A22C3E959
:102330000E22C3E91022C3E91422C3E917225A6707
:10234000C3E9016501801148018011490A70012229
:1023500083F834200F4A1A6070BD00BF7407002054
:1023600014150020E8060020304A0208CC060020A0
:102370004C0600201C2C012001000001000001017E
:10238000282C0120222C01201E2C0120242C01208D
:10239000202C0120BC4B02080148FFF77FBC00BF86
:1023A000740700200020704781807047C18070470B
:1023B000018170474181704770477047704770478F
:1023C000704710B4C4880368121B84885B6D091BB6
:1023D00012B25DF8044B09B218474FF6FF738381C0
:1023E0004FF0FF3303621368C36110607047002031
:1023F00070478B88838001207047704780F82610D3
:10240000704790F82600704710B50022B1F90840D7
:10241000B1F90A10028042808480C18010BD002280
:10242000028042808280C28070470177704780EDD1
:10243000080A704780F82410704780F8251070470C
:1024400001207047983070478C3070478430704757
:1024500070470000034B902283F85A2383F85823D7
:10246000704700BF00E100E0094A0A49D3680A4802
:10247000C3F30A03013B9BB20B801169C1F30A014C
:10248000013901801364536B43F0010353637047B8
:1024900000680140E21C0020E01C0020014BD3F842
:1024A000AC00704700680140024B0122C3F8AC1039
:1024B0005A627047006801407047704710B52C2180
:1024C000044620F0BDFA204610BD10B5BC210446DC
:1024D00020F0B6FA204610BD70B5044608F0F3F9B6
:1024E00023685D6E0DF060FE01462046A847236814
:1024F000054AD3F888502046AC460023BDE870401A
:10250000A2F51631604700BF00B004D008F0C2B990
:1025100008F0CCB908F088B908F0E9BA90F825209D
:1025200012B103685B691847704790F825201AB10B
:1025300090F8242002B1186070470000034B4FF060
:1025400080629A604FF080729A60704700E100E00C
:10255000084B4FF08062C3F88820BFF34F8FBFF362
:102560006F8F4FF08072C3F88820BFF34F8FBFF397
:102570006F8F704700E100E070B50023124E83803A
:10258000124B0360336893F8582005460AB1D86CA3
:1025900000B998680368DB6A98473368B0FA80F43A
:1025A000D86C640930B10368DB6A9847002808BF1B
:1025B00044F001042CB9064B064A07482C2121F0AF
:1025C00085F9284670BD00BF282C0120E85002087C
:1025D000E44F0208425002087B50020870B5244EB6
:1025E0003568BFF35B8F15F001053FD1304620F011
:1025F00029FA00283AD01F4C1F4B256104F1340002
:10260000C4E90035C4E90255E584A562A5850FF04B
:102610007EF904F158000AF0E9FB184BA365204647
:10262000174B40F8843BFFF7A7FF164BC4F88430E4
:102630002433C4F88C306423C4E928350023C4F85B
:10264000AC30C4F8B030C4F8B430C4F8B8300E4878
:102650000E4BC4F89050C4F89C50C4F8A850C4F86D
:10266000983021F051F9304620F0F8F9014870BD5A
:10267000E41C0020E81C00205469020808510208EC
:10268000805102080869020851240008E86802081D
:1026900010B5144C236823B3134B144A1B6C1188D8
:1026A0008B4213D1124B198804F0ACFA226892F8CD
:1026B0006A30013382F86A30FFF7C4FA206808F004
:1026C00041FEBDE810400020FFF708B904F09AFA77
:1026D000206803681B6A9847BDE810400020FFF798
:1026E00027B910BD282C012000680140E21C002001
:1026F000E01C0020704708B5042918D8DFE801F075
:1027000003070B0F130002F02BFA006808BD02F05C
:1027100027FA4068FAE702F023FA8068F6E702F049
:102720001FFAC068F2E702F01BFA0069EEE700202A
:10273000ECE710B50421044620F082F9204610BDD4
:1027400000487047D85102080520704713B500248F
:1027500051B1036801948DF8034001AA9C680DF102
:102760000303A04702B010BD0846FBE7C0897047CD
:10277000008A7047C088704780887047807A00F070
:102780007F007047807AC0097047002070470000C2
:102790009FED010A704700BF00000000704710B5B0
:1027A0000821044620F04CF9204610BD70477047C0
:1027B00000F598730868496803C37047704770470D
:1027C0004160704710B50022B1F90840B1F90A1014
:1027D000028042808480C18010BD70477047000035
:1027E000064BC0F84C310023C0F8503100F5A273FD
:1027F000C0F84801C0F84031704700BF792A00088E
:1028000001230372704770477047704770477047E5
:1028100001464068036810315B6E18470146406806
:10282000036810311B6E1847704701464068036803
:1028300010315B6E184770B5054640680368DB6968
:10284000984704463CB96868036805F110011B6E9F
:10285000BDE870401847A188AB89C91A2368204693
:102860001B6B09B29847A469ECE7704710B4C268C3
:1028700041685410034601EB6200D20748BF0A5971
:102880009B685DF8044B48BFD3581847034640681F
:1028900030B19A681AB9D86800F001007047012079
:1028A000704710B50C21044620F0CAF8204610BD30
:1028B00010B51021044620F0C3F8204610BD10B515
:1028C0004FF4AE71044620F0BBF8204610BD10B5A1
:1028D0003821044620F0B4F8204610BD10B5282158
:1028E000044620F0ADF8204610BD10B5382104464E
:1028F00020F0A6F8204610BD10B50DF055FC036879
:10290000BDE81040DB6B184737B50546807A6B7A17
:102910000130C0B29842A87205D901232B7200235E
:10292000AB7203B030BDB5F90C20B5F90E400021F3
:102930000FF056FCC30706D500284FF6FF73C8BF3B
:102940000123184400B2AB7AE881041B012BA4B226
:1029500006D1174B1B781BB10DF026FC0DF02AFC9D
:10296000144A00231288ADF80230EB891A445B4206
:10297000ADF80430104BADF800201B88ADF80630E0
:102980000DF012FC036802AA12E906001B6C9847BE
:1029900068680368DB6998470546002DC1D0A9889F
:1029A0002B68214428461B6B09B29847AD69F4E7B0
:1029B000262C01201C2C01201E2C012037B504469A
:1029C000807A637A0130C0B29842A07205D901239F
:1029D00023720023A37203B030BDB4F90C20002190
:1029E0000FF0FEFBC30706D500284FF6FF73C8BFE4
:1029F0000123184400B2144BE0811988258B83B25F
:102A00001248B0F90000ADF80600CA1A60682B44FD
:102A10005B1A12B2ADF8043003682283ADF80020CF
:102A200000221B69ADF8022069469847A37A012B62
:102A3000D1D1074B1B78002BCDD00DF0B5FB03B0E7
:102A4000BDE830400DF0B6BB1C2C01201E2C01202F
:102A5000262C012010B50446D0F8400158B1036877
:102A6000DB68984738B1D4F8400103689B68984701
:102A70000023C4F8403110BD2DE9F14FD0E9556A6B
:102A80000746B06803681B6A9847B0F5157F05D202
:102A9000444B454AA321454820F018FF706803685D
:102AA0001B6A98470F2803D8414B3F4AA421F2E7FD
:102AB000F06803681B6A98470B2803D83D4B3A4AD5
:102AC000A521E8E70DF070FBDFF8F09004300DF081
:102AD000B8FBD9F8000010B10368DB689847D9F853
:102AE000000010B103681B689847DFF8D480D8F85D
:102AF000000010B103685B699847D7F83C0110B13A
:102B000003685B689847D8F8000010B103681B6839
:102B10009847D7F83C0110B103689B689847F06864
:102B2000036800215B6A98474FF0000B224BC0F806
:102B300004B0044680F808B00360B06803685946E2
:102B40005B6A9847054602F07DF87068036859464D
:102B50005B6A98472946064602F052F8331DC7F8CB
:102B60003C61C9F80040C8F80050CAF800302B6832
:102B7000C6F808A02846DB68EE63984733683046FD
:102B80001B689847214628460FF024FB23682046FF
:102B90001B69984723685B69204601B0BDE8F04F88
:102BA000184700BF4C520208DA520208AC53020820
:102BB000F353020896540208C4580208702C0120EE
:102BC0006C2C01202DE9F0411D460368BDF91870F9
:102BD0001B6B0446164698472368314620465B6BBC
:102BE00098472368294620469B6B984723683946B7
:102BF0002046DB6BBDE8F041184700002DE9F74F98
:102C0000D0E955BA0746DBF8080003681B6A984705
:102C1000B0F5157F05D2544B544AA321544820F0F7
:102C200055FEDBF8040003681B6A98470F2803D899
:102C3000504B4E4AA421F1E7DBF80C0003681B6AF5
:102C40009847372803D84C4B484AA521E6E70DF0B2
:102C5000ABFADFF8389104300DF0F3FAD9F8000040
:102C600010B10368DB689847D9F8000010B1036819
:102C70001B689847DFF81881D8F8000010B1036886
:102C80005B699847D7F83C0110B103685B689847C7
:102C9000D8F8000010B103681B689847D7F83C01CA
:102CA00010B103689B689847DBF80C0003680021AB
:102CB0005B6A9847314B03604FF4A05303814FF494
:102CC000807343632E4B03612E4A2F4BB2F90020D1
:102CD000B3F9003083810025044645608572C581C3
:102CE000C0E90555C0E90755C0E90955C0E90B55CC
:102CF0002946009210302A46FFF764FFDBF80800EF
:102D0000036829465B6A9847064601F09BFFDBF89B
:102D10000400036829465B6A98473146054601F07E
:102D20006FFF2B1DC7F83C51C9F80040C8F8006080
:102D3000CAF800303368C5F808A03046DB68F56390
:102D400098472B6828461B689847214630460FF065
:102D500041FA236820461B69984723685B6920462F
:102D600003B0BDE8F04F18474C520208395502082D
:102D7000AC530208F3530208965402080C59020897
:102D8000F05702081E2C01201C2C0120702C012061
:102D90006C2C0120044B1B6893F858200AB1D86CA6
:102DA00000B99868704700BF282C0120F8B5174675
:102DB00004460E460DF0E2FA124B1C60124B2360E3
:102DC000124B0025C4E95135114BC4E9535518681D
:102DD000036801219B68C4E94F55C4E955769847BB
:102DE000284601F071FEFFF7D5FF17F026FDFFF72B
:102DF000D1FF17F09DFDFFF7CDFF17F0A5FD204691
:102E0000F8BD00BF7C2C01207058020858580208F9
:102E1000282C0120064BC0F84C310023C0F850315B
:102E200000F5A273C0F84801C0F84031704700BFF8
:102E3000792A0008064BC0F84C310023C0F8503105
:102E400000F5A273C0F84801C0F84031704700BFD8
:102E5000FD2B0008064BC0F84C310023C0F8503160
:102E600000F5A273C0F84801C0F84031704700BFB8
:102E700031300008064BC0F84C310023C0F8503107
:102E800000F5A273C0F84801C0F84031704700BF98
:102E9000F52E0008134B13B503604FF480734363A2
:102EA000114B0361114B41721B88594281811049BA
:102EB0000022B1F90010426002728272C281C0E940
:102EC0000522C0E90722C0E90922C0E90B22044615
:102ED00000911BB211461030FFF774FE204602B07D
:102EE00010BD00BFE8580208F05702081C2C012052
:102EF0001E2C01202DE9F047D0E9556A0746B0683D
:102F000003681B6A9847B0F5BE6F05D2414B424A31
:102F1000A321424820F0DAFC706803681B6A9847D6
:102F20000F2803D83E4B3C4AA421F2E7F06803681F
:102F30001B6A9847372803D83A4B374AA521E8E758
:102F40000DF032F9DFF8E09004300DF07AF9D9F89D
:102F5000000010B10368DB689847D9F8000010B191
:102F600003681B689847DFF8C480D8F8000010B1E8
:102F700003685B699847D7F83C0110B103685B6848
:102F80009847D8F8000010B103681B689847D7F835
:102F90003C0110B103689B689847F0680368002102
:102FA0005B6A984714210446FFF774FFB068036812
:102FB00000215B6A9847054601F040FF706803688E
:102FC00000215B6A98472946064601F015FF331D2C
:102FD000C7F83C61C9F80040C8F80050CAF8003092
:102FE0002B68C6F808A02846DB68EE63984733686C
:102FF00030461B689847214628460FF0EBF82368B7
:1030000020461B699847236820465B69BDE8F04766
:10301000184700BF4C5202081D560208AC53020864
:10302000F353020896540208702C01206C2C0120E6
:103030002DE9F047D0E9556A0746B06803681B6A76
:103040009847B0F58B6F05D2414B424AA3214248C5
:1030500020F03CFC706803681B6A98470F2803D86F
:103060003E4B3C4AA421F2E7F06803681B6A98478C
:10307000372803D83A4B374AA521E8E70DF094F8F2
:10308000DFF8E09004300DF0DCF8D9F8000010B162
:103090000368DB689847D9F8000010B103681B6823
:1030A0009847DFF8C480D8F8000010B103685B6966
:1030B0009847D7F83C0110B103685B689847D8F887
:1030C000000010B103681B689847D7F83C0110B1A5
:1030D00003689B689847F068036800215B6A98471B
:1030E00014210446FFF7D6FEB068036800215B6A2E
:1030F0009847054601F0E2FD7068036800215B6AAD
:1031000098472946064601F0B7FD331DC7F83C61D4
:10311000C9F80040C8F80050CAF800302B68C6F85B
:1031200008A02846DB68EE639847336830461B6882
:103130009847214628460FF04DF8236820461B6922
:103140009847236820465B69BDE8F047184700BFF1
:103150004C52020802570208AC530208F35302080B
:1031600096540208702C01206C2C0120406A704794
:10317000806A704770478B88C0690A68DB0A50F81C
:1031800023001044704710B50446BAB1107B68B1F3
:10319000537BD27A1B0203F4E0631A43236A03EBE6
:1031A00082031A888A4202D193F9020010BD05D821
:1031B000013880B204330028F3D1F7E70020F5E7A7
:1031C00010B52C2104461FF03BFC204610BD00002A
:1031D00030B58BB00446BDF860500895BDF85C5022
:1031E00007959DF8505006959DF84C5005959DF813
:1031F000485004959DF8445003959DF84050029521
:103200009DF83C500195BDF8385000950EF03CFCFF
:10321000064B2360159BE361169B2362199B636237
:103220001A9BA36220460BB030BD00BF3059020884
:10323000806A7047704770477047704770477047A3
:103240007047704770477047704790F82C304BB10B
:1032500000F16C021268C2653BB100F174031B6897
:103260000366704700F16802F4E700F17003F6E7C7
:1032700008B590F82C303BB100F1C4031B68C0F8CE
:10328000A830FFF7E2FF08BD00F1C003F6E7704782
:10329000704730B4C26844685510034604EB6200BE
:1032A000D20748BF62599B6830BC48BFD358184703
:1032B0000346406830B19A681AB9D86800F0010036
:1032C00070470120704790F82D3080F8AE3080F8BC
:1032D0005A30704790F82D3080F85A30704710B54A
:1032E000342104461FF0ACFB204610BD10B57821F8
:1032F00004461FF0A5FB204610BD10B5C8210446AA
:103300001FF09EFB204610BD10B5102104461FF093
:1033100097FB204610BD10B54FF4157104461FF001
:103320008FFB204610BD10B50446006B50B10368FA
:10333000DB68984730B1206B036821469B68BDE885
:103340001040184710BD0B7970B590F82C600446FA
:103350000D460BB916B170BD002EFCD0B3FA83F345
:103360005B0984F82C3023682046D3F88C309847CA
:10337000236820465B699847002EECD02B79012BFF
:10338000E9D123682046D3F88830BDE8704018475B
:1033900038B500F1B403994204460D4603D10CF050
:1033A00003FFFFF767FD04F5BE74A54205D10CF0DD
:1033B000FBFEBDE83840FFF74DBD38BD074A02604F
:1033C0000022C0E90122C0E90322C0E90522C0E9C8
:1033D00007224FF480728284704700BFBC6C0208E1
:1033E00070B5036804461B6B154698472368294649
:1033F00020465B6BBDE87040184770B50368044613
:103400009B6B15469847236829462046DB6BBDE831
:103410007040184710B526220446002120F05DFCBC
:103420002046FFF7CBFF044B2360FF2384F82630B0
:103430000023A362204610BD1C6B020810B5262293
:103440000446002120F049FC2046FFF7B7FF0A4B55
:1034500023600A4BA3624FF6FF73A3854FF47F02EC
:103460000023C4E90C3223874FF0FF32C4E9102354
:10347000E363204610BD00BF8C6A02084452020874
:1034800070B50446FFF79AFF4FF47F432646A385A5
:103490000123002584F82430144BA562256346F8E7
:1034A000343B3046FFF7B6FF114B63632A4629468B
:1034B0003046C4E91A55C4E91C552566A4F8645081
:1034C000FFF78EFF31462046264606F011FF094BD6
:1034D00046F8783B3046FFF7B1FF2046C4E9305547
:1034E000314606F005FF204670BD00BF985902081E
:1034F000846B0208345A020838B5044600F1780596
:1035000028460AF04FF8B4F90A20B4F90810284602
:10351000FFF773FF38BD00002DE9F04F04468BB074
:10352000A24600250EF0AAFC6C4BE5634AF8403B2E
:1035300004F16C07504604F1B408FFF76BFF3846FE
:1035400004F5BE76FFF77AFF4046FFF799FF304655
:10355000FFF796FF624BDFF8A4B1C4E99134614BE9
:10356000C4E993354FF4A0732A4600932946504688
:10357000F023FFF727FB04F104094FF07F43A36614
:103580005146484606F0B4FE522238460C21FFF759
:1035900027FF0DF1100A544BC4F89C3039465046B1
:1035A000A4F8A05009F064FD9AE8070004F1A8030C
:1035B00083E80700172308A93846ADF82430CDF872
:1035C00020B009F0EFFF394648462B2706F090FE61
:1035D0002A46294604F1E80000979823FFF7F2FAFB
:1035E000424A434B4349A4F81851C4E94732424B7D
:1035F000C4E94931D4F8B4304046D3F88C30984708
:1036000008A8162301464046ADF824304FF0FF3A93
:10361000CDF820B0FFF770FF98230822032104F5AE
:1036200096700097FFF7CEFA4046C4E95DAAFFF70F
:103630001FFE04F51170C4F8E40003909823A6223D
:10364000404600972A21FFF7BDFA4146484606F05A
:103650004FFE2A46294604F5D87000979823FFF7B5
:10366000B1FA224A224B2349C4F8F011C4E9793255
:10367000A3F54C53333BC4F8EC31D4F87C31A4F8B7
:10368000E0513046D3F88C309847152308A93046CE
:10369000ADF82430CDF820B0FFF72EFF9823082294
:1036A000032104F5FA700097FFF78CFA3046C4E95D
:1036B0008FAAFFF7DDFD039BC4F8AC31EA22982303
:1036C000304600972A21FFF77DFA4846314606F03A
:1036D0000FFE20460BB0BDE8F08F00BFE85A02088D
:1036E000D05A020891330008FF2F05FFCC9900FF44
:1036F000996600FF996633FFDB9146FF445202084A
:1037000030B50368018185B06D460146D3F8843039
:1037100004462846984795E807003C3484E80700AB
:1037200005B030BD30B50368418185B06D460146B6
:10373000D3F8843004462846984795E807003C347F
:1037400084E8070005B030BD0022028042808280FC
:10375000C280704780F83610704770B50368044621
:103760001B6B154698472368294620465B6EBDE8CB
:103770007040184700207047806C70477047704752
:1037800070477047704770477047704730B4C268E1
:1037900044685510034604EB6200D20748BF6259E3
:1037A0009B6830BC48BFD35818470346406830B1C7
:1037B0009A681AB9D86800F0010070470120704774
:1037C00090F82D3080F86030704790F82D3080F8F8
:1037D000A43080F85A30704710B54C2104461FF0D1
:1037E0002FF9204610BD10B5642104461FF028F9BA
:1037F000204610BD10B5A82104461FF021F920462F
:1038000010BD10B5102104461FF01AF9204610BD56
:1038100010B54FF48B6104461FF012F9204610BD1D
:103820000146383091F82C3013B136310AF0C0B867
:103830003431FBE710B504467C3094F82C303BB1B2
:1038400004F17A010AF0B4F82046FFF7FEFC10BD3F
:1038500004F17801F6E708B5FEF760FE08BD000048
:10386000036870B55E6B124B1B6804468DB22BB9B2
:10387000104B114A6C21114820F028F81049828D14
:103880000988914203D80F4B0B4A6D21F3E713F8D7
:1038900012200D4B1B6853F8220003681B6B9847DE
:1038A000291A3346204609B2BDE87040184700BFC8
:1038B000802C0120145B0208565B0208915B020811
:1038C000842C0120D85B0208882C012000F56F733E
:1038D000994270B504460D4603D10CF065FCFFF724
:1038E000A9FA04F5B0739D4203D123682046DB6A30
:1038F000984704F1B8039D4205D1236820461B6B0D
:10390000BDE87040184770BD00224FF0FF31C0E99C
:103910000021826070470B882DE9F041A0F87830D3
:103920001388B0F90850A0F87A3004461046904643
:1039300010F03EF8B4F90A30074603EBD373404663
:10394000C3F34F0610F068F805EBD575C5F34F05C6
:1039500000EBD07007EBD777A6EB6002A5EB670111
:1039600004F17C0012B209B2FFF73AFD2368204649
:10397000D3F88C30BDE8F04118470B882DE9F041B1
:1039800083861388B0F90850C386044610469046D3
:1039900010F00EF8B4F90A30074603EBD373404633
:1039A000C3F34F0610F038F805EBD575C5F34F0596
:1039B00000EBD07007EBD777A6EB6002A5EB6701B1
:1039C00004F1380012B209B2FFF70AFD236820465D
:1039D000D3F88C30BDE8F041184700000022C0E960
:1039E0000122C0E90322C0E90522C0E907224FF401
:1039F00080728284014A0260704700BF6C5C0208DA
:103A0000094A02600022C0E90122C0E90322C0E99C
:103A10000522C0E9072282624FF47F41026340F22F
:103A20000112818582847047645D020838B52622C0
:103A300004460D46002120F050F92046FFF7CEFF46
:103A4000064B23602B88E384FF23204684F828302C
:103A5000294609F0ADFF204638BD00BFEC6B0208D7
:103A600037B504463422002120F037F92546204698
:103A7000FFF7C6FF174B45F8343B2846FFF7CAFC53
:103A80000022154B22661146C4E91A22C4E91C2201
:103A9000A4F8642063632846FFF7A2FC2946204669
:103AA00006F026FC0D4B236004F17C054FF6FF73F6
:103AB000A4F87830A4F87A3001A92846ADF804308B
:103AC000FFF7B4FF2046294606F012FC204603B05B
:103AD00030BD00BF98590208846B0208005E0208DE
:103AE0002DE9F04F044695B0254600260EF0C6F9A4
:103AF000544BE66345F8403B04F16C092846FFF758
:103B000089FC4846FFF79AFC4F4FE76604F1B8037B
:103B10001846C4F8B4600493FFF7A2FF04F5B0732D
:103B200018460593FFF79CFF04F5027318460393AC
:103B3000FFF784FC04F51573C4F808721846C4F83E
:103B400050620693FFF77AFC04F527731846079333
:103B5000FFF774FC04F5397318460893FFF76EFC01
:103B600004F54B7318460993FFF768FC04F55D7381
:103B7000184604F56F7A0A93FFF760FC3422314649
:103B8000504620F0AAF85046FFF73AFF2F4BC4F8F2
:103B9000BC3304F57D774FF6FF73A4F8F033A4F837
:103BA000F23312A93846ADF84830FFF73FFF3946E7
:103BB000504606F09DFB264BC4F84834254BC4F80C
:103BC00050344FF4A07332462846C4F84C44C4F82D
:103BD000546431460093F023FEF7F4FF271D4FF0A5
:103BE0007F43A3662946384606F082FBA52266215C
:103BF0004846FFF7F5FBE36EA4F8A0600CAD4FF06C
:103C0000FF3BD3F88430C4F89CB049462846984717
:103C100095E8070004F1A80383E807000E4B1B6832
:103C200004F584682BB90D4B0D4A60210D481FF037
:103C30004DFE0D4B1B88032B1AD80C4B084A6121F3
:103C4000F4E700BF585F0208D45C0208A05E0208D7
:103C5000405F0208CD380008802C0120145B020868
:103C6000165C0208915B0208842C0120D85B0208D4
:103C7000C74B0321186800F063FFC64A03460A21B8
:103C800040460FF0DBFD4846C4F8B48009F06AFCFA
:103C9000DFF82083CDF848800523484612A9ADF807
:103CA0004C3009F07FFC494638464FF0320906F0A7
:103CB0001FFB4B46CDF800903246314604F1EC0034
:103CC000FEF780FFB44AB549D4F8B8300498D3F869
:103CD0008C30A4F81C61C4E94A21C4E948BB984768
:103CE00012A8024611A8032301460498ADF84430F7
:103CF000ADF84830FFF70FFE04F58960C4F8E8001E
:103D00000B902C202D23A322C4F83861142100909D
:103D10000498FEF757FF0499384606F0E9FA4B4637
:103D2000CDF800903246314604F5CA70FEF74AFFDE
:103D3000994A9A49D4F860310598D3F88C30A4F8A0
:103D4000C461C4E97421C4E972BB9847042305988F
:103D5000ADF8443012AA11A9ADF84830FFF7DBFDE9
:103D60000B9AC4F890212C222D230598C4F8E06109
:103D7000B1210092A322FEF725FF0599384606F0EF
:103D8000B7FA712203987821FFF72AFBD4F808329A
:103D90000399D3F88430C4F838B22846A4F83C62BA
:103DA000984795E8070004F5117383E807007C4AFB
:103DB000136804F23449002B3FF435AF794A138875
:103DC000022B7FF63AAF724B0221186800F0B8FE62
:103DD000704A03460A2148460FF030FD0398C4F8A4
:103DE000509209F0BFFB09230398ADF84C3012A99B
:103DF000CDF8488009F0D6FB0399384606F078FAEA
:103E0000069844222C21FFF7EBFA0699C4F884B2F5
:103E10002846A4F8886209F02BF995E8070004F514
:103E2000247383E807000A230698ADF84C3012A9E2
:103E3000CDF8488009F0B6FB0699384606F058FAE6
:103E4000079871222A21FFF7CBFA0799C4F8CCB260
:103E50002846A4F8D06209F00BF995E8070004F5AC
:103E6000367383E807000B230798ADF84C3012A98E
:103E7000CDF8488009F096FB0799384606F038FAE5
:103E8000089844227021FFF7ABFA474B0899C4F811
:103E900014332846A4F8186309F0EAF895E80700F7
:103EA00004F5487383E807004FF00C090898CDF833
:103EB000488012A9ADF84C9009F074FB089984F879
:103EC0000963384606F014FA099844227021FFF776
:103ED00087FA364B0999C4F85C332846A4F8606326
:103EE00009F0C6F895E8070004F55A7383E807005F
:103EF0000D230998ADF84C3012A9CDF8488009F08F
:103F000051FB099984F85163384606F0F1F94A46A5
:103F10000A982921FFF764FA254B0A99C4F8A433BB
:103F20002846A4F8A86309F0A3F895E8070004F56B
:103F30006C7383E8070014230A98ADF84C3012A97B
:103F4000CDF8488009F02EFB0A99384606F0D0F9E2
:103F5000022312AA11A95046ADF84430ADF84830FA
:103F6000FFF70BFD0B9BC4F8EC332023C4F8F86378
:103F70004FF48D7200935046CC21FEF723FE384655
:103F8000514606F0B5F9204615B0BDE8F08F00BFE8
:103F90008C2C0120615C0208663300FF996633FFB8
:103FA000802C0120842C012021C465FF2121C2FF27
:103FB000FF2F05FF44520208704770477047704753
:103FC00070477047704730B4C26844685510034664
:103FD00004EB6200D20748BF62599B6830BC48BFFF
:103FE000D35818470346406830B19A681AB9D86860
:103FF00000F0010070470120704730B4C268446887
:104000005510034604EB6200D20748BF62599B6813
:1040100030BC48BFD35818470346406830B19A684F
:104020001AB9D86800F0010070470120704710B538
:10403000102104461EF004FD204610BD10B51021CD
:1040400004461EF0FDFC204610BD10B54FF4BE61C5
:1040500004461EF0F5FC204610BD00F2FC428A42E8
:1040600002D103685B6B1847704700F50F739942E4
:1040700070B504460D4603D10CF096F8FEF7DAFE53
:1040800004F53A739D4203D123682046DB6A9847C2
:1040900004F5CA739D4205D1236820461B6BBDE819
:1040A0007040184770BD000010B50446FFF7C6F910
:1040B000024B23600023A364204610BDD45C020899
:1040C0002DE9F04F044697B0264600250DF0D6FEA8
:1040D0009F4BE56346F8403B04F16C0A3046FFF71E
:1040E00099F904F1B80B5046FFF7DEFF04F580792B
:1040F0005846FFF7A3F94846FFF7A0F904F5A47363
:1041000018460293FFF7D0FF04F5CA7318460493CC
:10411000FFF7A6FC04F50F733422294618460393D3
:104120001FF0DBFD0398FFF76BFC4FF6FF77894B21
:10413000C4F83C3204F51D78A4F87072A4F87272C9
:1041400014A94046ADF85070FFF770FC4146039843
:1041500006F0CEF804F5287318460593FFF76EF9BC
:1041600004F53A7318460693FFF77AFC04F5647376
:1041700018460793FFF762F904F57673184608931B
:10418000FFF75CF904F5846318460993FFF756F9C5
:1041900004F58D6318460A93FFF750F904F596630A
:1041A00018460B93FFF780FF04F2FC4326222946B2
:1041B00018460C931FF091FD0C98FFF70FFC4FF081
:1041C000010384F82035644BC4F8FC3404F2345302
:1041D000A4F82A75A4F82C7584F82E75A4F8307507
:1041E0001846C4F8245584F828550D93FFF75CFF52
:1041F0005A4BC4F8D0355A4BC4F8D835594BC4F88B
:10420000E035594BC4F8E8354FF4A0732A463046E0
:10421000C4F8D445C4F8DC55C4F8E445C4F8EC55FA
:1042200029460093F023FEF7CDFC271D4FF07F4376
:10423000A3663146384606F05BF882225046692173
:10424000FFF7CEF8E36EA4F8A0500EAE4FF0FF38A3
:104250005146D3F88430C4F89C803046984796E89D
:10426000070004F1A80383E8070004F5B063C4F86D
:10427000B4305046A4F8805509F074F951463846D8
:1042800006F036F8552258462521FFF7A9F8594679
:104290003046C4F8E880A4F8EC5008F0E9FE96E84F
:1042A000070004F1F40383E807005946384606F096
:1042B0001FF8B12248462321FFF792F849463046BD
:1042C000C4F83081A4F8345108F0D2FE96E8070013
:1042D00004F59E7383E80700DFF8A4B0CDF850B072
:1042E0004FF00403484614A9ADF8543009F05AF9C8
:1042F0004946384605F0FCFFE5220298DFF884A025
:104300006021FFF76DF8D4F848310299D3F8843072
:10431000C4F878813046A4F87C51984796E80700A5
:1043200004F5C27383E80700DAF8003004F2945908
:104330002BB90E4B0E4A60210E481FF0C7FA0E4BE8
:104340001B88072B20D80D4B094A6121F4E700BFD9
:10435000C45F0208A05E0208186A0208945F02089F
:104360006B400008AC5F02085B400008145B020869
:10437000165C0208915B0208842C0120D85B0208BD
:1043800044520208802C0120D44B0721186800F009
:10439000D7FBD34A03460A2148460FF04FFA02984A
:1043A000C4F8909109F0DEF808230298ADF8543073
:1043B00014A94FF03209CDF850B009F0F3F8029982
:1043C00084F86D51384605F093FF4B462A4629463E
:1043D00004F5E470CDF80090FEF7F4FBC14AC24941
:1043E000D4F894310498D3F88C30A4F8F851C4E987
:1043F0008121C4E97F88984714A8024613A80323A3
:1044000001460498ADF84C30ADF85030FFF783FA10
:1044100004F5BA60C4F8C40102902C202D23E422D4
:10442000C4F8145284F8B951112100900498FEF791
:10443000C9FB0499384605F05BFF14A8024613A88F
:10444000022301460398ADF84C30ADF85030FFF729
:1044500094FA20230298C4F86C024FF48D720398EA
:10446000C4F87852CC210093FEF7ACFB0399384690
:1044700005F03EFF2A4605982821FEF7B1FF9B4B29
:104480000599C4F8D0323046A4F8D45208F0F0FDB3
:1044900096E8070004F5377383E8070014A8132390
:1044A00001460598ADF85430CDF850B009F07AF8CF
:1044B0000599384605F01CFF4B462A46294604F567
:1044C0004770CDF80090FEF77DFB864A8649D4F808
:1044D000E8320698D3F88C30A4F84C53C4E9D621BE
:1044E000C4E9D48898474FF004020698ADF84C20F0
:1044F000ADF8502013A914AAFFF70DFA029AC4F8D8
:1045000018232C222D230698C4F8685384F80D53E1
:10451000AE210092E422FEF755FB0699384605F0DD
:10452000E7FE552207982521FEF75AFF30460799E6
:10453000C4F8C083A4F8C45308F09AFD96E80700B5
:1045400004F5737383E8070012230798ADF854301D
:1045500014A9CDF850B009F025F80799384605F0B0
:10456000C7FE822208982321FEF73AFF30460899B9
:10457000C4F80884A4F80C5408F07AFD96E8070003
:1045800004F2144383E807000F230898ADF8543071
:1045900014A9CDF850B009F005F80899384605F08F
:1045A000A7FE552209986921FEF71AFF504B099979
:1045B000C4F850343046A4F8545408F059FD96E835
:1045C000070004F25C4383E8070011230998ADF863
:1045D000543014A9CDF850B008F0E4FF099984F8DC
:1045E0004554384605F084FE55220A986921FEF7A5
:1045F000F7FE404B0A99C4F898343046A4F89C540E
:1046000008F036FD96E8070004F2A44383E80700AB
:1046100010230A98ADF8543014A9CDF850B008F022
:10462000C1FF0A9984F88D54384605F061FE0B9855
:1046300082226921FEF7D4FEDAF80030C4F8E08463
:10464000A4F8E454C4F8EC54C4F8F084C4F8F45466
:1046500004F5B566002B3FF46CAE274A1388062B91
:104660007FF671AE1D4B0621186800F069FA1C4AEE
:1046700003460A2130460FF0E1F80B98C4F8F864BD
:1046800008F070FF0E230B98ADF8543014A9CDF844
:1046900050B008F087FF0B99384605F029FE0C98BA
:1046A000A4228121FEF79CFE14A90A460C98A4F8C6
:1046B000305513A94FF00109ADF84C90ADF85050AA
:1046C00008F0CAFF04F5BC63C4F824350C993846D9
:1046D00005F00EFE0D982D2240210FE08C2C0120BC
:1046E000615C0208663300FF996633FFFF2F05FF08
:1046F00021C465FF2121C2FF842C0120FEF770FE3A
:10470000DAF80030C4F86485A4F86855C4F8705528
:10471000C4F87485C4F8785504F2BC56002B3FF4F5
:1047200008AE124A1388002B3FF40DAE104B2946F9
:10473000186800F005FA0F4A03460A2130460FF0C8
:104740007DF80D98C4F87C6508F00CFF0D98CDF845
:1047500050B014A9ADF8549008F024FF38460D99D4
:1047600005F0C6FD204617B0BDE8F08F842C01206F
:104770008C2C0120615C02087047000030B5164D9A
:104780002C68BFF35B8F14F001048FB021D1284651
:104790001EF058F9E8B1114B114912480A94CDE9BD
:1047A0000B433F230993104B0893104B05940122B0
:1047B000CDE906430423CDE903321E230093CDE95E
:1047C0000144FEF705FD0A481FF09EF828461EF03A
:1047D00045F904480FB030BDA41D0020FC5F02085D
:1047E00018990208A81D0020E49C0208449D0208B4
:1047F000794700087047000030B5164D2C68BFF3AC
:104800005B8F14F001048FB020D128461EF01AF9F6
:10481000E0B13F230993104B0893104B1049114806
:104820000A940122CDE906430423CDE903320A2389
:104830000093CDE90B44CDE901440594FEF7C8FC93
:1048400009481FF061F828461EF008F905480FB026
:1048500030BD00BFD41D0020E89C0208489D02081E
:1048600028990208D81D0020F5470008704700006D
:1048700030B5174D2C68BFF35B8F14F001048FB077
:1048800022D128461EF0DEF8F0B13F230993114BE8
:104890000893114B07930123CDE9054304930423A7
:1048A000CDE9024314230D49009324221823CDE9B6
:1048B0000B440B480A940194FEF78AFC09481FF048
:1048C00023F828461EF0CAF805480FB030BD00BFD7
:1048D000041E0020EC9C02084C9D02083899020836
:1048E000081E00206D4800087047000030B5164DC6
:1048F0002C68BFF35B8F14F001048FB021D12846E0
:104900001EF0A0F8E8B13F230993104B0893104B19
:10491000104911480A94CDE9064301220423CDE948
:1049200003321E2300931422CDE90B44CDE9014448
:104930000594FEF74DFC09481EF0E6FF28461EF0E0
:104940008DF805480FB030BD341E0020249D0208AC
:10495000509D0208309B0208381E0020E9480008DC
:104960007047000030B5174D2C68BFF35B8F14F013
:1049700001048FB022D128461EF064F8F0B13F2325
:104980000993114B0893114B114912480A94CDE930
:10499000064301220423CDE90332282300930B228E
:1049A0002923CDE90B44CDE901440594FEF710FC21
:1049B00009481EF0A9FF28461EF050F805480FB020
:1049C00030BD00BF641E0020409D0208549D0208B7
:1049D000489C0208681E00206149000800207047BA
:1049E000002070470EB403B503AB002153F8042B2D
:1049F00001930CF04DFB02B05DF804EB03B070477F
:104A00000CB407B504AB53F8042B01930CF040FB36
:104A100003B05DF804EB02B070470000436C10B5C2
:104A2000044673B3038F2BB9184B194AC521194893
:104A30001EF04CFFC38E00EB43035B8C0BB30EF0F8
:104A400054F9238F012B03D8134B144ACB21EEE7E3
:104A5000E28E531C9BB2092B194688BFA3F10A01B1
:104A600004EB410140F63F10498C814209D10A2BE9
:104A700004EB420228BF002304EB4303508C58840C
:104A800051842046BDE810400EF032B8526402084E
:104A90005B64020806650208506502085E6502084C
:104AA0000DF0EDBF10B586B002AC84E806001A46E2
:104AB0000AAB05930193099B00932146089B0AF0DA
:104AC00011FF06B010BD000038B518BB124B1348DB
:104AD0001C681349B4B1226822440260626822440F
:104AE0000A60A26814440F4B00221A8000F038F8C4
:104AF000054600F033F80C4B1C600C4B1D600C4B52
:104B0000188007E00B4B03600B4B0B600B4B1C68D2
:104B1000002CE8D138BD00BFA01E0020981E002048
:104B2000941E00209C1E0020802C0120882C012037
:104B3000842C0120B89D0208589D0208B49E0208EA
:104B4000044B1B6853F82100034B1B6803EB400028
:104B5000704700BF941E0020981E00201820704748
:104B600000487047A41E002010B5FFF781FE074CD7
:104B70002060FFF7BBFE6060FFF73EFEA060FFF71E
:104B8000FDFDE060FFF7EEFE206110BDA41E0020D9
:104B900010B5002404600C6014601C6010BD7047E8
:104BA00010B54FF4AE7104461DF04AFF204610BD0B
:104BB00010B50446D0F8580100F013F82046BDE8BF
:104BC00010400BF09BBB000010B50446FEF7EEF85A
:104BD000014B2360204610BD3866020800220260A7
:104BE00070477047704704387047704710B5102100
:104BF00004461DF025FF204610BDA0F10400F5E796
:104C000000228260024A026018324260C16070472E
:104C10008C6602087047000010B5034B0360044621
:104C2000FEF710FB204610BDB466020810B504461E
:104C3000FFF7F2FF20464FF415711DF001FF2046EB
:104C400010BD000010B50446FEF766FC014B236062
:104C5000204610BDB4660208FEF7F5BA7047043866
:104C60007047704710B5102104461DF0E9FE20463C
:104C700010BDA0F10400F5E700228260024A026044
:104C800018324260C1607047E86602087047000051
:104C900010B5034B03600446FEF772FD204610BDBD
:104CA0001467020810B50446FFF7F2FF20464FF4E0
:104CB0008B611DF0C5FE204610BD000010B50446F6
:104CC000FEF70EFF014B2360204610BD146702085B
:104CD00010B5074B074A1B6804460A2100F584609B
:104CE0000EF0ACFD04F16C00BDE810400CF0FABA17
:104CF000140000200867020810B50446FEF741FDC5
:104D00002046BDE81040FFF7E3BF0000044A1368E7
:104D100013F11D0FA4BF01331360FFF7D9BF00BF0C
:104D200014000020044A1368312BDCBF03F1FF3369
:104D30001360FFF7CDBF00BF1400002037B5234D2F
:104D40000446286803F06EFB00283DD04FF0FF3387
:104D5000286800220DF1060103F034FB9DF80630AF
:104D6000322B31D81A4A1B4D0A2104F234400EF07E
:104D700065FD04F502700CF0B5FA2B689DF806206D
:104D800015489A42CCBF462366238DF8073000228F
:104D90000A230DF10701006803F0E3FA2B689DF880
:104DA00006209A42CCBF0123002384F80933D4BFE4
:104DB0000123002304F5397084F851330CF092FA82
:104DC00004F54B700CF08EFA03B030BDF8030020F0
:104DD0000867020814000020F00300207047043820
:104DE0007047704710B5102104461DF029FE20467B
:104DF00010BDA0F10400F5E700228260024A0260C3
:104E000018324260C1607047506702087047000066
:104E100010B5034B03600446FFF7D1F8204610BDE0
:104E20008867020810B50446FFF7F2FF20464FF4EA
:104E3000BE611DF005FE204610BD000010B5044601
:104E4000FFF73EF9014B2360204610BD886702083A
:104E5000064B1A68064B1B683C214B434FF46161BB
:104E600001FB0233034A1360704700BF1C0000209F
:104E700018000020B81E002010B5074B074A1B6819
:104E800004460A2100F294500EF0D8FC04F5A470F8
:104E9000BDE810400CF026BA240000200867020884
:104EA000044A1368B3F5967FBCBF01331360FFF764
:104EB000E3BF00BF24000020044A1368002BA4BFF6
:104EC00003F1FF331360FFF7D7BF00BF24000020BA
:104ED00013B50B4B0B4A1B6801930B4B1B680093DC
:104EE0000A4B04461B680A2100F2BC500EF0A6FCD7
:104EF00004F2345002B0BDE810400CF0F3B900BF2A
:104F0000BC1E002070670208180000201C00002052
:104F100010B5044680F80D1380F8B91180F86D11B2
:104F200000F53A700CF0DEF904F5CA700CF0DAF90D
:104F300004F5A470BDE810400CF0D4B910B5044CD1
:104F40002178FFF7E5FF237883F00103237010BD7C
:104F50002000002070B504460B4DFFF731F804F235
:104F6000FC462046FFF788FF2978304607F08FFF80
:104F700030460CF0B7F92978204681F00101BDE8F0
:104F80007040FFF7C5BF00BF200000202DE9F341AE
:104F9000454E464D0446306803F044FA00283ED0A2
:104FA00030684FF0FF3300220DF1060103F00AFADA
:104FB0009DF806303E4A0A2104F5B5600EF03EFC2D
:104FC00004F596600CF08EF93A4B1A783A4B04F5DA
:104FD0008467186804F58D66002A46D02B68063B66
:104FE0000B2B94BF6C234C238DF8073000220A232F
:104FF0000DF1070103F0B5F92B68063B0B2B8CBFB5
:105000000123002384F8453494BF0123002338464C
:1050100084F88D340CF066F930460CF063F903F037
:1050200063F8264A12683C214FF47A73B0FBF3F31D
:1050300023481344B3FBF1F201FB12360660B2FBC6
:10504000F1F001FB10221F490A604FF46162B3FBCB
:10505000F2F318222046B3FBF2F102FB11332B606E
:10506000FFF736FF02B0BDE8F081DFF85C809DF805
:105070000610D8F800309942B4BF4C236C238DF849
:1050800007300DF107010A2303F06BF9D8F800305F
:105090009DF806209A42B4BF0123002384F84534CA
:1050A000ACBF01230023B2E7F40300201C00002062
:1050B0000867020820000020F0030020B81E00202E
:1050C000BC1E00201800002024000020F0207047A3
:1050D0004FF4A07070472920FBF7E4BD2820FBF7B0
:1050E000E1BD08B5FBF7B2FDCA20FBF7DBFDC3202D
:1050F000FBF7BCFD0820FBF7B9FD5020FBF7B6FD20
:10510000CF20FBF7CFFD0020FBF7B0FDC120FBF760
:10511000ADFD3020FBF7AAFDED20FBF7C3FD6420B9
:10512000FBF7A4FD0320FBF7A1FD1220FBF79EFD7A
:105130008120FBF79BFDE820FBF7B4FD8520FBF702
:1051400095FD0020FBF792FD7820FBF78FFDCB202B
:10515000FBF7A8FD3920FBF789FD2C20FBF786FD26
:105160000020FBF783FD3420FBF780FD0220FBF7D6
:105170007DFDF720FBF796FD2020FBF777FDEA2069
:10518000FBF790FD0020FBF771FD0020FBF76EFDA3
:10519000B120FBF787FD0020FBF768FD1B20FBF724
:1051A00065FDB620FBF77EFD0A20FBF75FFDA22020
:1051B000FBF75CFDC020FBF775FD1020FBF756FDEB
:1051C000C120FBF76FFD1020FBF750FDC520FBF75A
:1051D00069FD4520FBF74AFD1520FBF747FDC72079
:1051E000FBF760FD9020FBF741FD3620FBF75AFDF1
:1051F000C820FBF73BFDF220FBF754FD0020FBF736
:1052000035FDB020FBF74EFDC220FBF72FFDB62089
:10521000FBF748FD0A20FBF729FDA720FBF726FD39
:105220002720FBF723FD0420FBF720FD2A20FBF7B6
:1052300039FD0020FBF71AFD0020FBF717FD0020C9
:10524000FBF714FDEF20FBF711FD2B20FBF72AFDE8
:105250000020FBF70BFD0020FBF708FD0120FBF70A
:1052600005FD3F20FBF702FDF620FBF71BFD0120AB
:10527000FBF7FCFC0020FBF7F9FC0620FBF7F6FC33
:105280002C20FBF70FFDC820FBF75AFD2620FBF76B
:1052900009FD0120FBF7EAFCE020FBF703FD0F20EE
:1052A000FBF7E4FC2920FBF7E1FC2420FBF7DEFC04
:1052B0000C20FBF7DBFC0E20FBF7D8FC0920FBF7EA
:1052C000D5FC4E20FBF7D2FC7820FBF7CFFC3C202E
:1052D000FBF7CCFC0920FBF7C9FC1320FBF7C6FC4D
:1052E0000520FBF7C3FC1720FBF7C0FC1120FBF7E0
:1052F000BDFC0020FBF7BAFCE120FBF7D3FC00204B
:10530000FBF7B4FC1620FBF7B1FC1B20FBF7AEFC4F
:105310000420FBF7ABFC1120FBF7A8FC0720FBF7F0
:10532000A5FC3120FBF7A2FC3320FBF79FFC4220B9
:10533000FBF79CFC0520FBF799FC0C20FBF796FC87
:105340000A20FBF793FC2820FBF790FC2F20FBF7AB
:105350008DFC0F20FBF78AFC1120FBF7A3FCC82073
:10536000FBF7EEFC2920FBF79DFCBDE808402C2054
:10537000FBF798BC08B5FBF769FC0321D320FBF7CA
:10538000ADFC80B208BD10B5C4B202220321204694
:10539000FBF712FC0A20FBF757FC204600220321F2
:1053A000FBF70AFCBDE810400220FBF74DBC38B506
:1053B0000446E4B2FBF7FEFB00212046FBF714FC99
:1053C000012105462046FBF70FFC40EA052080B28C
:1053D00038BD10B5C4B240212046FBF705FC0306DA
:1053E00007D54C212046FBF7FFFB003818BF0120F2
:1053F00010BD01224B212046FBF7DEFB2046002298
:105400004B21FBF7D9FB0020F2E773B50423C4B2AC
:105410000E461546D7210DEB03022046FBF7FEFB97
:10542000019B1BBA1A0DC3F30B23328020462B803D
:1054300001224B21FBF7C0FB00224B212046FBF74A
:10544000BBFB02B070BD000010B50A4A1378984249
:1054500004460DD0517888420AD00BB141B90123DE
:10546000D454FBF7A7FB2046BDE81040FFF78BBFE5
:1054700010BD00BFC01E002010B5C4B209212046D7
:10548000FBF7B2FB40F00102D2B220460921BDE891
:105490001040FBF791BB10B5C4B209212046FBF7C1
:1054A000A3FB092100F0FE022046BDE81040FBF7F7
:1054B00083BB38B5C4B20D4620460A21FBF794FBE6
:1054C00040EA0502D2B220460A21BDE83840FBF787
:1054D00073BB10B50446FBF76EFB20461F21FFF798
:1054E000E8FF2046BDE81040FFF7C6BF38B5C4B29C
:1054F0000D4620460A21FBF777FB20EA0502D2B2CF
:1055000020460A21BDE83840FBF756BB10B50446DB
:10551000FFF7C1FF20461F21BDE81040FFF7E6BF9F
:1055200010B5C0B20C460B21FBF75EFB204010BD4E
:105530001F21FFF7F5BF0A46C0B20B21FBF73CBBAA
:105540001F21FFF7F8BF38B5C4B20D46204617211A
:10555000FBF74AFB20EA0502D2B220461721BDE83C
:105560003840FBF729BB70B5C4B20646042120467B
:10557000FBF73AFB042100F0FB0205462046FBF74F
:105580001BFB3046F021FFF7DEFF05F0F802204656
:105590000421FBF711FB492220212046FBF70CFBDD
:1055A0000220FBF751FB204601222121FBF704FBDF
:1055B00020469A224121FBF7FFFA204601224A2188
:1055C000FBF7FAFA204601224B21FBF7F5FA2046B9
:1055D00000224B21FBF7F0FA204601225621FBF76F
:1055E000EBFA204601225821FBF7E6FA2046012279
:1055F0004021FBF7E1FA2046FF220B21FBF7DCFA02
:10560000BDE870400220FBF71FBB0000054BD3F83C
:10561000882042F47002C3F888204FF000629A603C
:10562000704700BF00ED00E008B50B4B1A6842F46C
:1056300000721A601A6842F480621A601A6842F4B2
:1056400080721A60032000F02FF80020FBF7CEFFD5
:10565000FBF798FD002008BD003C0240034A044BC4
:1056600011681B780B441360704700BFC41E0020F4
:105670008C000020014B1868704700BFC41E00203A
:1056800038B50446FFF7F6FF631C1CBF054B1B78BB
:10569000054618BFE418FFF7EDFF431BA342FAD3FA
:1056A00038BD00BF8C0000200749CA6822F4E062C0
:1056B0000302120403F4E063120C134343F0BF63CC
:1056C00043F40033CB60704700ED00E0164B30B57B
:1056D000DC68C4F30224C4F10703251D042B28BF92
:1056E0000423062D4FF0FF358CBF033C002405FA40
:1056F00003F321EA0303A54022EA0502A3400028A0
:1057000043EA0203ACBF00F16040084A4FEA0313CA
:10571000B8BF00F00F00DBB2AABF00F56140135420
:1057200080F8003330BD00BF00ED00E014ED00E074
:10573000002807DB044A4109012300F01F008340D1
:1057400042F82130704700BF00E100E010B5044688
:1057500050B1437903F0FF0213B90271FBF732FD38
:1057600001236371002010BD0120FCE710B5044641
:1057700030B390F8393003F0FF021BB980F83820BD
:10578000FBF738FD22686168022384F8393013681A
:1057900023F440330B431360536BA16823F00703DA
:1057A0000B435363136CE16823F47F5323F03F03EF
:1057B0000B43136400200123E06384F8393010BDEB
:1057C0000120FCE770477047036870B55E681D688C
:1057D000F207044614D5E90512D51A6822F480723E
:1057E0001A60C26B42F00102C26301229A60042374
:1057F00080F83930002380F83830436903B1984786
:10580000B20616D5AB0414D523681A6822F40052E8
:105810001A6020229A60E36B43F00203E3630423DF
:1058200084F83930002384F8383063690BB120469E
:105830009847300716D5290514D523681A6822F42D
:1058400000621A6008229A60E36B43F00403E3638A
:10585000042384F83930002384F8383063690BB1AD
:105860002046984772070BD56B0509D523681A683F
:1058700022F480621A6004229A602046FFF7A2FF99
:10588000B00714D5A90512D523681A6822F400724E
:105890001A6002229A60E36BE363012384F83930D3
:1058A000002384F8383023690BB120469847F2066C
:1058B00013D5EB0411D523681A6822F480521A60BC
:1058C00010229A60E36BE363012384F839300023EC
:1058D00084F838302046FFF776FF70BDF0B590F8B9
:1058E0003820012A03464FF002002BD0012283F812
:1058F000382083F8390003EB0112D2E90740556ADA
:10590000174F44EA0040093C012C9CBF05F07F4240
:1059100010434FEA01161A6888BF40EA056091B942
:10592000516A394001435162012C9969916103D850
:10593000596A21F07F4191620122002083F83920C9
:1059400083F83800F0BDD16939400143D16199191C
:10595000012C896911619CBF25F07F451562EBE739
:10596000F0FFFC002DE9F74FDFF8BC916C4A0023F3
:105970000D6801249C4004EA0506AC4340F0B78062
:105980004D68032705F003044FEA430807FA08FCB3
:10599000671E012F6FEA0C0C34D8876807EA0C0EDB
:1059A000CF6807FA08F747EA0E078760476827EAD3
:1059B000060EC5F300179F4047EA0E074760C76809
:1059C00007EA0C0E8F6807FA08F747EA0E07022C61
:1059D000C76019D14FEAD30A00EB8A0A03F0070B1C
:1059E000DAF820704FEA8B0B4FF00F0E0EFA0BFE19
:1059F00027EA0E0E0F6907FA0BF747EA0E07CAF8F7
:105A0000207001E0032CDAD1076804FA08F407EAF1
:105A10000C073C4315F4403F046068D00024019417
:105A2000D9F8444044F48044C9F84440D9F844408B
:105A300023F0030707F1804704F4804407F59C37FF
:105A4000019403F0030C019CD7F808E04FEA8C0C9A
:105A50000F2404FA0CF42EEA040E324CA0424DD06E
:105A600004F58064A0424BD004F58064A04249D084
:105A700004F58064A04247D004F58064A04245D07C
:105A800004F58064A04243D004F58064A04241D074
:105A900004F58064A0423FD004F58064A0423DD06C
:105AA00004F58064A04214BF0A24092404FA0CF40B
:105AB00044EA0E04BC609468F74315F4801F0CBFE1
:105AC0003C4034439460D46815F4001F0CBF3C4044
:105AD0003443D460546815F4003F0CBF3C40344359
